

Microchip Technology PIC18 LITE Macro Assembler V2.00 build -1524193055 
                                                                                               Sun Aug 12 20:10:18 2018

Microchip Technology Omniscient Code Generator v2.00 (Free mode) build 20180527130849
     1                           	processor	18F4550
     2                           	fnconf	rparam,??,?,0
     3                           	opt	pw 120
     4                           	opt	lm
     5                           	psect	smallconst,global,reloc=2,class=SMALLCONST,delta=1,noexec
     6                           	psect	cinit,global,reloc=2,class=CODE,delta=1
     7                           	psect	cstackCOMRAM,global,class=COMRAM,space=1,delta=1,noexec
     8                           	psect	text0,global,reloc=2,class=CODE,delta=1
     9                           	psect	text1,global,reloc=2,class=CODE,delta=1
    10                           	psect	text2,global,reloc=2,class=CODE,delta=1
    11                           	psect	text3,global,reloc=2,class=CODE,delta=1
    12                           	psect	text4,global,reloc=2,class=CODE,delta=1,group=1
    13                           	psect	text5,global,reloc=2,class=CODE,delta=1,group=1
    14                           	psect	text6,global,reloc=2,class=CODE,delta=1,group=1
    15                           	psect	text7,global,reloc=2,class=CODE,delta=1,group=1
    16                           	psect	intsave_regs,global,class=BIGRAM,space=1,delta=1,noexec
    17                           	psect	rparam,global,class=COMRAM,space=1,delta=1,noexec
    18  0000                     
    19                           ; Version 2.00
    20                           ; Generated 27/05/2018 GMT
    21                           ; 
    22                           ; Copyright © 2018, Microchip Technology Inc. and its subsidiaries ("Microchip")
    23                           ; All rights reserved.
    24                           ; 
    25                           ; This software is developed by Microchip Technology Inc. and its subsidiaries ("Microch
      +                          ip").
    26                           ; 
    27                           ; Redistribution and use in source and binary forms, with or without modification, are
    28                           ; permitted provided that the following conditions are met:
    29                           ; 
    30                           ;     1. Redistributions of source code must retain the above copyright notice, this lis
      +                          t of
    31                           ;        conditions and the following disclaimer.
    32                           ; 
    33                           ;     2. Redistributions in binary form must reproduce the above copyright notice, this 
      +                          list
    34                           ;        of conditions and the following disclaimer in the documentation and/or other
    35                           ;        materials provided with the distribution.
    36                           ; 
    37                           ;     3. Microchip's name may not be used to endorse or promote products derived from th
      +                          is
    38                           ;        software without specific prior written permission.
    39                           ; 
    40                           ; THIS SOFTWARE IS PROVIDED BY MICROCHIP "AS IS" AND ANY EXPRESS OR IMPLIED WARRANTIES,
    41                           ; INCLUDING, BUT NOT LIMITED TO, THE IMPLIED WARRANTIES OF MERCHANTABILITY AND FITNESS F
      +                          OR
    42                           ; PURPOSE ARE DISCLAIMED.  IN NO EVENT SHALL MICROCHIP BE LIABLE FOR ANY DIRECT, INDIREC
      +                          T,
    43                           ; INCIDENTAL, SPECIAL, EXEMPLARY, OR CONSEQUENTIAL DAMAGES (INCLUDING BUT NOT LIMITED TO
    44                           ; PROCUREMENT OF SUBSTITUTE GOODS OR SERVICES; LOSS OF USE, DATA OR PROFITS; OR BUSINESS
    45                           ; INTERRUPTION) HOWSOEVER CAUSED AND ON ANY THEORY OF LIABILITY, WHETHER IN CONTRACT, ST
      +                          RICT
    46                           ; LIABILITY, OR TORT (INCLUDING NEGLIGENCE OR OTHERWISE) ARISING IN ANY WAY OUT OF THE U
      +                          SE OF
    47                           ; THIS SOFTWARE, EVEN IF ADVISED OF THE POSSIBILITY OF SUCH DAMAGE.
    48                           ; 
    49                           ; 
    50                           ; Code-generator required, PIC18F4550 Definitions
    51                           ; 
    52                           ; SFR Addresses
    53  0000                     _TXREG	set	4013
    54  0000                     _RCSTA	set	4011
    55  0000                     _TXSTA	set	4012
    56  0000                     _SPBRG	set	4015
    57  0000                     _TRISD	set	3989
    58  0000                     _OSCCON	set	4051
    59  0000                     _TXIF	set	31988
    60  0000                     _TRISC7	set	31911
    61  0000                     _TRISC6	set	31910
    62                           
    63                           	psect	smallconst
    64  000800                     __psmallconst:
    65                           	opt stack 0
    66  000800  00                 	db	0
    67  000801                     STR_1:
    68  000801  42                 	db	66	;'B'
    69  000802  69                 	db	105	;'i'
    70  000803  73                 	db	115	;'s'
    71  000804  6D                 	db	109	;'m'
    72  000805  69                 	db	105	;'i'
    73  000806  6C                 	db	108	;'l'
    74  000807  6C                 	db	108	;'l'
    75  000808  61                 	db	97	;'a'
    76  000809  68                 	db	104	;'h'
    77  00080A  0D                 	db	13
    78  00080B  0A                 	db	10
    79  00080C  00                 	db	0
    80                           
    81                           ; #config settings
    82  00080D  00                 	db	0	; dummy byte at the end
    83  0000                     
    84                           	psect	cinit
    85  001102                     __pcinit:
    86                           	opt stack 0
    87  001102                     start_initialization:
    88                           	opt stack 0
    89  001102                     __initialization:
    90                           	opt stack 0
    91  001102                     end_of_initialization:
    92                           	opt stack 0
    93  001102                     __end_of__initialization:
    94                           	opt stack 0
    95  001102  0E00               	movlw	low (__Lsmallconst shr (0+16))
    96  001104  6EF8               	movwf	tblptru,c
    97  001106  0E08               	movlw	high __Lsmallconst
    98  001108  6EF7               	movwf	tblptrh,c
    99  00110A  0100               	movlb	0
   100  00110C  EF6D  F008         	goto	_main	;jump to C main() function
   101                           tblptru	equ	0xFF8
   102                           tblptrh	equ	0xFF7
   103                           
   104                           	psect	cstackCOMRAM
   105  000001                     __pcstackCOMRAM:
   106                           	opt stack 0
   107  000001                     ?___fltol:
   108                           	opt stack 0
   109  000001                     ?___xxtofl:
   110                           	opt stack 0
   111  000001                     USART_TxChar@out:
   112                           	opt stack 0
   113  000001                     ___fltol@f1:
   114                           	opt stack 0
   115  000001                     ___xxtofl@val:
   116                           	opt stack 0
   117                           
   118                           ; 4 bytes @ 0x0
   119  000001                     	ds	1
   120  000002                     USART_SendString@out:
   121                           	opt stack 0
   122                           
   123                           ; 2 bytes @ 0x1
   124  000002                     	ds	2
   125  000004                     
   126                           ; 1 bytes @ 0x3
   127  000004                     	ds	1
   128  000005                     ??___fltol:
   129  000005                     ??___xxtofl:
   130                           
   131                           ; 1 bytes @ 0x4
   132  000005                     	ds	4
   133  000009                     ___fltol@sign1:
   134                           	opt stack 0
   135  000009                     ___xxtofl@sign:
   136                           	opt stack 0
   137                           
   138                           ; 1 bytes @ 0x8
   139  000009                     	ds	1
   140  00000A                     ___fltol@exp1:
   141                           	opt stack 0
   142  00000A                     ___xxtofl@exp:
   143                           	opt stack 0
   144                           
   145                           ; 1 bytes @ 0x9
   146  00000A                     	ds	1
   147  00000B                     ___xxtofl@arg:
   148                           	opt stack 0
   149                           
   150                           ; 4 bytes @ 0xA
   151  00000B                     	ds	4
   152  00000F                     ?___fldiv:
   153                           	opt stack 0
   154  00000F                     ___fldiv@b:
   155                           	opt stack 0
   156                           
   157                           ; 4 bytes @ 0xE
   158  00000F                     	ds	4
   159  000013                     ___fldiv@a:
   160                           	opt stack 0
   161                           
   162                           ; 4 bytes @ 0x12
   163  000013                     	ds	4
   164  000017                     ??___fldiv:
   165                           
   166                           ; 1 bytes @ 0x16
   167  000017                     	ds	4
   168  00001B                     ___fldiv@rem:
   169                           	opt stack 0
   170                           
   171                           ; 4 bytes @ 0x1A
   172  00001B                     	ds	4
   173  00001F                     ___fldiv@sign:
   174                           	opt stack 0
   175                           
   176                           ; 1 bytes @ 0x1E
   177  00001F                     	ds	1
   178  000020                     ___fldiv@new_exp:
   179                           	opt stack 0
   180                           
   181                           ; 2 bytes @ 0x1F
   182  000020                     	ds	2
   183  000022                     ___fldiv@grs:
   184                           	opt stack 0
   185                           
   186                           ; 4 bytes @ 0x21
   187  000022                     	ds	4
   188  000026                     ___fldiv@bexp:
   189                           	opt stack 0
   190                           
   191                           ; 1 bytes @ 0x25
   192  000026                     	ds	1
   193  000027                     ___fldiv@aexp:
   194                           	opt stack 0
   195                           
   196                           ; 1 bytes @ 0x26
   197  000027                     	ds	1
   198  000028                     ?___fladd:
   199                           	opt stack 0
   200  000028                     ___fladd@b:
   201                           	opt stack 0
   202                           
   203                           ; 4 bytes @ 0x27
   204  000028                     	ds	4
   205  00002C                     ___fladd@a:
   206                           	opt stack 0
   207                           
   208                           ; 4 bytes @ 0x2B
   209  00002C                     	ds	4
   210  000030                     ??___fladd:
   211                           
   212                           ; 1 bytes @ 0x2F
   213  000030                     	ds	8
   214  000038                     ___fladd@signs:
   215                           	opt stack 0
   216                           
   217                           ; 1 bytes @ 0x37
   218  000038                     	ds	1
   219  000039                     ___fladd@aexp:
   220                           	opt stack 0
   221                           
   222                           ; 1 bytes @ 0x38
   223  000039                     	ds	1
   224  00003A                     ___fladd@bexp:
   225                           	opt stack 0
   226                           
   227                           ; 1 bytes @ 0x39
   228  00003A                     	ds	1
   229  00003B                     ___fladd@grs:
   230                           	opt stack 0
   231                           
   232                           ; 1 bytes @ 0x3A
   233  00003B                     	ds	1
   234  00003C                     USART_Init@baud_rate:
   235                           	opt stack 0
   236                           
   237                           ; 4 bytes @ 0x3B
   238  00003C                     	ds	4
   239  000040                     USART_Init@temp:
   240                           	opt stack 0
   241                           
   242                           ; 4 bytes @ 0x3F
   243  000040                     	ds	4
   244  000044                     tblptru	equ	0xFF8
   245                           tblptrh	equ	0xFF7
   246                           
   247                           ; 1 bytes @ 0x43
   248 ;;
   249 ;;Main: autosize = 0, tempsize = 0, incstack = 0, save=0
   250 ;;
   251 ;; *************** function _main *****************
   252 ;; Defined at:
   253 ;;		line 19 in file "Transmit_Char.c"
   254 ;; Parameters:    Size  Location     Type
   255 ;;		None
   256 ;; Auto vars:     Size  Location     Type
   257 ;;		None
   258 ;; Return value:  Size  Location     Type
   259 ;;                  1    wreg      void 
   260 ;; Registers used:
   261 ;;		wreg, status,2, status,0, tblptrl, tblptrh, tblptru, cstack
   262 ;; Tracked objects:
   263 ;;		On entry : 0/0
   264 ;;		On exit  : 0/0
   265 ;;		Unchanged: 0/0
   266 ;; Data sizes:     COMRAM   BANK0   BANK1   BANK2   BANK3   BANK4   BANK5   BANK6   BANK7
   267 ;;      Params:         0       0       0       0       0       0       0       0       0
   268 ;;      Locals:         0       0       0       0       0       0       0       0       0
   269 ;;      Temps:          0       0       0       0       0       0       0       0       0
   270 ;;      Totals:         0       0       0       0       0       0       0       0       0
   271 ;;Total ram usage:        0 bytes
   272 ;; Hardware stack levels required when called:    2
   273 ;; This function calls:
   274 ;;		_USART_Init
   275 ;;		_USART_SendString
   276 ;; This function is called by:
   277 ;;		Startup code after reset
   278 ;; This function uses a non-reentrant model
   279 ;;
   280                           
   281                           	psect	text0
   282  0010DA                     __ptext0:
   283                           	opt stack 0
   284  0010DA                     _main:
   285                           	opt stack 29
   286                           
   287                           ;Transmit_Char.c: 21:     OSCCON=0x72;
   288                           
   289                           ;incstack = 0
   290  0010DA  0E72               	movlw	114
   291  0010DC  6ED3               	movwf	4051,c	;volatile
   292                           
   293                           ;Transmit_Char.c: 22:     USART_Init(9600);
   294  0010DE  0E80               	movlw	128
   295  0010E0  6E3C               	movwf	USART_Init@baud_rate,c
   296  0010E2  0E25               	movlw	37
   297  0010E4  6E3D               	movwf	USART_Init@baud_rate+1,c
   298  0010E6  0E00               	movlw	0
   299  0010E8  6E3E               	movwf	USART_Init@baud_rate+2,c
   300  0010EA  0E00               	movlw	0
   301  0010EC  6E3F               	movwf	USART_Init@baud_rate+3,c
   302  0010EE  EC0E  F008         	call	_USART_Init	;wreg free
   303                           
   304                           ;Transmit_Char.c: 23:     TRISD = 0b11111111;
   305  0010F2  6895               	setf	3989,c	;volatile
   306  0010F4                     
   307                           ;Transmit_Char.c: 42:         USART_SendString("Bismillah\r\n");
   308  0010F4  0E01               	movlw	low STR_1
   309  0010F6  6E02               	movwf	USART_SendString@out,c
   310  0010F8  0E08               	movlw	high STR_1
   311  0010FA  6E03               	movwf	USART_SendString@out+1,c
   312  0010FC  EC58  F008         	call	_USART_SendString	;wreg free
   313                           
   314                           ;Transmit_Char.c: 52:     };
   315  001100  D7F9               	goto	l27
   316  001102                     __end_of_main:
   317                           	opt stack 0
   318                           tblptru	equ	0xFF8
   319                           tblptrh	equ	0xFF7
   320                           
   321 ;; *************** function _USART_SendString *****************
   322 ;; Defined at:
   323 ;;		line 75 in file "Transmit_Char.c"
   324 ;; Parameters:    Size  Location     Type
   325 ;;  out             2    1[COMRAM] PTR const unsigned char 
   326 ;;		 -> STR_1(12), 
   327 ;; Auto vars:     Size  Location     Type
   328 ;;		None
   329 ;; Return value:  Size  Location     Type
   330 ;;                  1    wreg      void 
   331 ;; Registers used:
   332 ;;		wreg, status,2, status,0, tblptrl, tblptrh, tblptru, cstack
   333 ;; Tracked objects:
   334 ;;		On entry : 0/0
   335 ;;		On exit  : 0/0
   336 ;;		Unchanged: 0/0
   337 ;; Data sizes:     COMRAM   BANK0   BANK1   BANK2   BANK3   BANK4   BANK5   BANK6   BANK7
   338 ;;      Params:         2       0       0       0       0       0       0       0       0
   339 ;;      Locals:         0       0       0       0       0       0       0       0       0
   340 ;;      Temps:          0       0       0       0       0       0       0       0       0
   341 ;;      Totals:         2       0       0       0       0       0       0       0       0
   342 ;;Total ram usage:        2 bytes
   343 ;; Hardware stack levels used:    1
   344 ;; Hardware stack levels required when called:    1
   345 ;; This function calls:
   346 ;;		_USART_TxChar
   347 ;; This function is called by:
   348 ;;		_main
   349 ;; This function uses a non-reentrant model
   350 ;;
   351                           
   352                           	psect	text1
   353  0010B0                     __ptext1:
   354                           	opt stack 0
   355  0010B0                     _USART_SendString:
   356                           	opt stack 29
   357                           
   358                           ;Transmit_Char.c: 75: void USART_SendString(const char *out);Transmit_Char.c: 76: {;Tran
      +                          smit_Char.c: 77:    while(*out!='\0')
   359                           
   360                           ;incstack = 0
   361  0010B0  D00A               	goto	l42
   362  0010B2                     
   363                           ;Transmit_Char.c: 78:    {;Transmit_Char.c: 79:         USART_TxChar(*out);
   364  0010B2  C002  FFF6         	movff	USART_SendString@out,tblptrl
   365  0010B6  C003  FFF7         	movff	USART_SendString@out+1,tblptrh
   366  0010BA                     	if	0	;tblptru may be non-zero
   367  0010BA                     	endif
   368  0010BA                     	if	0	;tblptru may be non-zero
   369  0010BA                     	endif
   370  0010BA  0008               	tblrd		*
   371  0010BC  50F5               	movf	tablat,w,c
   372  0010BE  EC88  F008         	call	_USART_TxChar
   373                           
   374                           ;Transmit_Char.c: 80:         out++;
   375  0010C2  4A02               	infsnz	USART_SendString@out,f,c
   376  0010C4  2A03               	incf	USART_SendString@out+1,f,c
   377  0010C6                     l42:
   378                           
   379                           ;Transmit_Char.c: 77:    while(*out!='\0')
   380  0010C6  C002  FFF6         	movff	USART_SendString@out,tblptrl
   381  0010CA  C003  FFF7         	movff	USART_SendString@out+1,tblptrh
   382  0010CE                     	if	0	;tblptru may be non-zero
   383  0010CE                     	endif
   384  0010CE                     	if	0	;tblptru may be non-zero
   385  0010CE                     	endif
   386  0010CE  0008               	tblrd		*
   387  0010D0  50F5               	movf	tablat,w,c
   388  0010D2  0900               	iorlw	0
   389  0010D4  B4D8               	btfsc	status,2,c
   390  0010D6  0012               	return	
   391  0010D8  D7EC               	goto	l43
   392  0010DA                     __end_of_USART_SendString:
   393                           	opt stack 0
   394                           tblptru	equ	0xFF8
   395                           tblptrh	equ	0xFF7
   396                           tblptrl	equ	0xFF6
   397                           tablat	equ	0xFF5
   398                           status	equ	0xFD8
   399                           
   400 ;; *************** function _USART_TxChar *****************
   401 ;; Defined at:
   402 ;;		line 68 in file "Transmit_Char.c"
   403 ;; Parameters:    Size  Location     Type
   404 ;;  out             1    wreg     unsigned char 
   405 ;; Auto vars:     Size  Location     Type
   406 ;;  out             1    0[COMRAM] unsigned char 
   407 ;; Return value:  Size  Location     Type
   408 ;;                  1    wreg      void 
   409 ;; Registers used:
   410 ;;		wreg
   411 ;; Tracked objects:
   412 ;;		On entry : 0/0
   413 ;;		On exit  : 0/0
   414 ;;		Unchanged: 0/0
   415 ;; Data sizes:     COMRAM   BANK0   BANK1   BANK2   BANK3   BANK4   BANK5   BANK6   BANK7
   416 ;;      Params:         0       0       0       0       0       0       0       0       0
   417 ;;      Locals:         1       0       0       0       0       0       0       0       0
   418 ;;      Temps:          0       0       0       0       0       0       0       0       0
   419 ;;      Totals:         1       0       0       0       0       0       0       0       0
   420 ;;Total ram usage:        1 bytes
   421 ;; Hardware stack levels used:    1
   422 ;; This function calls:
   423 ;;		Nothing
   424 ;; This function is called by:
   425 ;;		_USART_SendString
   426 ;; This function uses a non-reentrant model
   427 ;;
   428                           
   429                           	psect	text2
   430  001110                     __ptext2:
   431                           	opt stack 0
   432  001110                     _USART_TxChar:
   433                           	opt stack 29
   434                           
   435                           ;incstack = 0
   436                           ;USART_TxChar@out stored from wreg
   437  001110  6E01               	movwf	USART_TxChar@out,c
   438  001112                     
   439                           ;Transmit_Char.c: 68: void USART_TxChar(char out);Transmit_Char.c: 69: {;Transmit_Char.c
      +                          : 70:         while(TXIF==0);
   440  001112  A89E               	btfss	3998,4,c	;volatile
   441  001114  D7FE               	goto	l729
   442                           
   443                           ;Transmit_Char.c: 71:         TXREG=out;
   444  001116  C001  FFAD         	movff	USART_TxChar@out,4013	;volatile
   445  00111A  0012               	return		;funcret
   446  00111C                     __end_of_USART_TxChar:
   447                           	opt stack 0
   448                           tblptru	equ	0xFF8
   449                           tblptrh	equ	0xFF7
   450                           tblptrl	equ	0xFF6
   451                           tablat	equ	0xFF5
   452                           status	equ	0xFD8
   453                           
   454 ;; *************** function _USART_Init *****************
   455 ;; Defined at:
   456 ;;		line 57 in file "Transmit_Char.c"
   457 ;; Parameters:    Size  Location     Type
   458 ;;  baud_rate       4   59[COMRAM] long 
   459 ;; Auto vars:     Size  Location     Type
   460 ;;  temp            4   63[COMRAM] float 
   461 ;; Return value:  Size  Location     Type
   462 ;;                  1    wreg      void 
   463 ;; Registers used:
   464 ;;		wreg, status,2, status,0, cstack
   465 ;; Tracked objects:
   466 ;;		On entry : 0/0
   467 ;;		On exit  : 0/0
   468 ;;		Unchanged: 0/0
   469 ;; Data sizes:     COMRAM   BANK0   BANK1   BANK2   BANK3   BANK4   BANK5   BANK6   BANK7
   470 ;;      Params:         4       0       0       0       0       0       0       0       0
   471 ;;      Locals:         4       0       0       0       0       0       0       0       0
   472 ;;      Temps:          0       0       0       0       0       0       0       0       0
   473 ;;      Totals:         8       0       0       0       0       0       0       0       0
   474 ;;Total ram usage:        8 bytes
   475 ;; Hardware stack levels used:    1
   476 ;; Hardware stack levels required when called:    1
   477 ;; This function calls:
   478 ;;		___fladd
   479 ;;		___fldiv
   480 ;;		___fltol
   481 ;;		___xxtofl
   482 ;; This function is called by:
   483 ;;		_main
   484 ;; This function uses a non-reentrant model
   485 ;;
   486                           
   487                           	psect	text3
   488  00101C                     __ptext3:
   489                           	opt stack 0
   490  00101C                     _USART_Init:
   491                           	opt stack 29
   492                           
   493                           ;Transmit_Char.c: 57: void USART_Init(long baud_rate);Transmit_Char.c: 58: {;Transmit_Ch
      +                          ar.c: 59:     float temp;;Transmit_Char.c: 60:     TRISC6=0;
   494                           
   495                           ;incstack = 0
   496  00101C  9C94               	bcf	3988,6,c	;volatile
   497                           
   498                           ;Transmit_Char.c: 61:     TRISC7=1;
   499  00101E  8E94               	bsf	3988,7,c	;volatile
   500                           
   501                           ;Transmit_Char.c: 62:     temp=(((float)(8000000/64)/(float)baud_rate)-1);
   502  001020  C03C  F001         	movff	USART_Init@baud_rate,___xxtofl@val
   503  001024  C03D  F002         	movff	USART_Init@baud_rate+1,___xxtofl@val+1
   504  001028  C03E  F003         	movff	USART_Init@baud_rate+2,___xxtofl@val+2
   505  00102C  C03F  F004         	movff	USART_Init@baud_rate+3,___xxtofl@val+3
   506  001030  0E01               	movlw	1
   507  001032  EC00  F007         	call	___xxtofl
   508  001036  C001  F013         	movff	?___xxtofl,___fldiv@a
   509  00103A  C002  F014         	movff	?___xxtofl+1,___fldiv@a+1
   510  00103E  C003  F015         	movff	?___xxtofl+2,___fldiv@a+2
   511  001042  C004  F016         	movff	?___xxtofl+3,___fldiv@a+3
   512  001046  0E00               	movlw	0
   513  001048  6E0F               	movwf	___fldiv@b,c
   514  00104A  0E24               	movlw	36
   515  00104C  6E10               	movwf	___fldiv@b+1,c
   516  00104E  0EF4               	movlw	244
   517  001050  6E11               	movwf	___fldiv@b+2,c
   518  001052  0E47               	movlw	71
   519  001054  6E12               	movwf	___fldiv@b+3,c
   520  001056  ECA4  F005         	call	___fldiv	;wreg free
   521  00105A  C00F  F028         	movff	?___fldiv,___fladd@b
   522  00105E  C010  F029         	movff	?___fldiv+1,___fladd@b+1
   523  001062  C011  F02A         	movff	?___fldiv+2,___fladd@b+2
   524  001066  C012  F02B         	movff	?___fldiv+3,___fladd@b+3
   525  00106A  0E00               	movlw	0
   526  00106C  6E2C               	movwf	___fladd@a,c
   527  00106E  0E00               	movlw	0
   528  001070  6E2D               	movwf	___fladd@a+1,c
   529  001072  0E80               	movlw	128
   530  001074  6E2E               	movwf	___fladd@a+2,c
   531  001076  0EBF               	movlw	191
   532  001078  6E2F               	movwf	___fladd@a+3,c
   533  00107A  EC07  F004         	call	___fladd	;wreg free
   534  00107E  C028  F040         	movff	?___fladd,USART_Init@temp
   535  001082  C029  F041         	movff	?___fladd+1,USART_Init@temp+1
   536  001086  C02A  F042         	movff	?___fladd+2,USART_Init@temp+2
   537  00108A  C02B  F043         	movff	?___fladd+3,USART_Init@temp+3
   538                           
   539                           ;Transmit_Char.c: 63:     SPBRG=(int)temp;
   540  00108E  C040  F001         	movff	USART_Init@temp,___fltol@f1
   541  001092  C041  F002         	movff	USART_Init@temp+1,___fltol@f1+1
   542  001096  C042  F003         	movff	USART_Init@temp+2,___fltol@f1+2
   543  00109A  C043  F004         	movff	USART_Init@temp+3,___fltol@f1+3
   544  00109E  ECA0  F007         	call	___fltol	;wreg free
   545  0010A2  5001               	movf	?___fltol,w,c
   546  0010A4  6EAF               	movwf	4015,c	;volatile
   547                           
   548                           ;Transmit_Char.c: 64:     TXSTA=0x20;
   549  0010A6  0E20               	movlw	32
   550  0010A8  6EAC               	movwf	4012,c	;volatile
   551                           
   552                           ;Transmit_Char.c: 65:     RCSTA=0x80;
   553  0010AA  0E80               	movlw	128
   554  0010AC  6EAB               	movwf	4011,c	;volatile
   555  0010AE  0012               	return		;funcret
   556  0010B0                     __end_of_USART_Init:
   557                           	opt stack 0
   558                           tblptru	equ	0xFF8
   559                           tblptrh	equ	0xFF7
   560                           tblptrl	equ	0xFF6
   561                           tablat	equ	0xFF5
   562                           status	equ	0xFD8
   563                           
   564 ;; *************** function ___xxtofl *****************
   565 ;; Defined at:
   566 ;;		line 10 in file "C:\Program Files (x86)\Microchip\xc8\v2.00\pic\sources\c99\common\xxtofl.c"
   567 ;; Parameters:    Size  Location     Type
   568 ;;  sign            1    wreg     unsigned char 
   569 ;;  val             4    0[COMRAM] long 
   570 ;; Auto vars:     Size  Location     Type
   571 ;;  sign            1    8[COMRAM] unsigned char 
   572 ;;  arg             4   10[COMRAM] unsigned long 
   573 ;;  exp             1    9[COMRAM] unsigned char 
   574 ;; Return value:  Size  Location     Type
   575 ;;                  4    0[COMRAM] unsigned char 
   576 ;; Registers used:
   577 ;;		wreg, status,2, status,0
   578 ;; Tracked objects:
   579 ;;		On entry : 0/0
   580 ;;		On exit  : 0/0
   581 ;;		Unchanged: 0/0
   582 ;; Data sizes:     COMRAM   BANK0   BANK1   BANK2   BANK3   BANK4   BANK5   BANK6   BANK7
   583 ;;      Params:         4       0       0       0       0       0       0       0       0
   584 ;;      Locals:         6       0       0       0       0       0       0       0       0
   585 ;;      Temps:          4       0       0       0       0       0       0       0       0
   586 ;;      Totals:        14       0       0       0       0       0       0       0       0
   587 ;;Total ram usage:       14 bytes
   588 ;; Hardware stack levels used:    1
   589 ;; This function calls:
   590 ;;		Nothing
   591 ;; This function is called by:
   592 ;;		_USART_Init
   593 ;; This function uses a non-reentrant model
   594 ;;
   595                           
   596                           	psect	text4
   597  000E00                     __ptext4:
   598                           	opt stack 0
   599  000E00                     ___xxtofl:
   600                           	opt stack 29
   601                           
   602                           ;incstack = 0
   603                           ;___xxtofl@sign stored from wreg
   604  000E00  6E09               	movwf	___xxtofl@sign,c
   605  000E02  5009               	movf	___xxtofl@sign,w,c
   606  000E04  A4D8               	btfss	status,2,c
   607  000E06  AE04               	btfss	___xxtofl@val+3,7,c
   608  000E08  D01A               	goto	l711
   609  000E0A  C001  F005         	movff	___xxtofl@val,??___xxtofl
   610  000E0E  C002  F006         	movff	___xxtofl@val+1,??___xxtofl+1
   611  000E12  C003  F007         	movff	___xxtofl@val+2,??___xxtofl+2
   612  000E16  C004  F008         	movff	___xxtofl@val+3,??___xxtofl+3
   613  000E1A  1E05               	comf	??___xxtofl,f,c
   614  000E1C  1E06               	comf	??___xxtofl+1,f,c
   615  000E1E  1E07               	comf	??___xxtofl+2,f,c
   616  000E20  1E08               	comf	??___xxtofl+3,f,c
   617  000E22  2A05               	incf	??___xxtofl,f,c
   618  000E24  0E00               	movlw	0
   619  000E26  2206               	addwfc	??___xxtofl+1,f,c
   620  000E28  2207               	addwfc	??___xxtofl+2,f,c
   621  000E2A  2208               	addwfc	??___xxtofl+3,f,c
   622  000E2C  C005  F00B         	movff	??___xxtofl,___xxtofl@arg
   623  000E30  C006  F00C         	movff	??___xxtofl+1,___xxtofl@arg+1
   624  000E34  C007  F00D         	movff	??___xxtofl+2,___xxtofl@arg+2
   625  000E38  C008  F00E         	movff	??___xxtofl+3,___xxtofl@arg+3
   626  000E3C  D008               	goto	l712
   627  000E3E                     l711:
   628  000E3E  C001  F00B         	movff	___xxtofl@val,___xxtofl@arg
   629  000E42  C002  F00C         	movff	___xxtofl@val+1,___xxtofl@arg+1
   630  000E46  C003  F00D         	movff	___xxtofl@val+2,___xxtofl@arg+2
   631  000E4A  C004  F00E         	movff	___xxtofl@val+3,___xxtofl@arg+3
   632  000E4E                     l712:
   633  000E4E  5001               	movf	___xxtofl@val,w,c
   634  000E50  1002               	iorwf	___xxtofl@val+1,w,c
   635  000E52  1003               	iorwf	___xxtofl@val+2,w,c
   636  000E54  1004               	iorwf	___xxtofl@val+3,w,c
   637  000E56  A4D8               	btfss	status,2,c
   638  000E58  D009               	goto	l713
   639  000E5A  0E00               	movlw	0
   640  000E5C  6E01               	movwf	?___xxtofl,c
   641  000E5E  0E00               	movlw	0
   642  000E60  6E02               	movwf	?___xxtofl+1,c
   643  000E62  0E00               	movlw	0
   644  000E64  6E03               	movwf	?___xxtofl+2,c
   645  000E66  0E00               	movlw	0
   646  000E68  6E04               	movwf	?___xxtofl+3,c
   647  000E6A  0012               	return	
   648  000E6C                     l713:
   649  000E6C  0E96               	movlw	150
   650  000E6E  6E0A               	movwf	___xxtofl@exp,c
   651  000E70  D006               	goto	l715
   652  000E72  2A0A               	incf	___xxtofl@exp,f,c
   653  000E74  90D8               	bcf	status,0,c
   654  000E76  320E               	rrcf	___xxtofl@arg+3,f,c
   655  000E78  320D               	rrcf	___xxtofl@arg+2,f,c
   656  000E7A  320C               	rrcf	___xxtofl@arg+1,f,c
   657  000E7C  320B               	rrcf	___xxtofl@arg,f,c
   658  000E7E                     l715:
   659  000E7E  0E00               	movlw	0
   660  000E80  140B               	andwf	___xxtofl@arg,w,c
   661  000E82  6E05               	movwf	??___xxtofl& (0+255),c
   662  000E84  0E00               	movlw	0
   663  000E86  140C               	andwf	___xxtofl@arg+1,w,c
   664  000E88  6E06               	movwf	(??___xxtofl+1)& (0+255),c
   665  000E8A  0E00               	movlw	0
   666  000E8C  140D               	andwf	___xxtofl@arg+2,w,c
   667  000E8E  6E07               	movwf	(??___xxtofl+2)& (0+255),c
   668  000E90  0EFE               	movlw	254
   669  000E92  140E               	andwf	___xxtofl@arg+3,w,c
   670  000E94  6E08               	movwf	(??___xxtofl+3)& (0+255),c
   671  000E96  5005               	movf	??___xxtofl,w,c
   672  000E98  1006               	iorwf	??___xxtofl+1,w,c
   673  000E9A  1007               	iorwf	??___xxtofl+2,w,c
   674  000E9C  1008               	iorwf	??___xxtofl+3,w,c
   675  000E9E  B4D8               	btfsc	status,2,c
   676  000EA0  D00D               	goto	l718
   677  000EA2  D7E7               	goto	l716
   678  000EA4  2A0A               	incf	___xxtofl@exp,f,c
   679  000EA6  0E01               	movlw	1
   680  000EA8  260B               	addwf	___xxtofl@arg,f,c
   681  000EAA  0E00               	movlw	0
   682  000EAC  220C               	addwfc	___xxtofl@arg+1,f,c
   683  000EAE  220D               	addwfc	___xxtofl@arg+2,f,c
   684  000EB0  220E               	addwfc	___xxtofl@arg+3,f,c
   685  000EB2  90D8               	bcf	status,0,c
   686  000EB4  320E               	rrcf	___xxtofl@arg+3,f,c
   687  000EB6  320D               	rrcf	___xxtofl@arg+2,f,c
   688  000EB8  320C               	rrcf	___xxtofl@arg+1,f,c
   689  000EBA  320B               	rrcf	___xxtofl@arg,f,c
   690  000EBC                     l718:
   691  000EBC  0E00               	movlw	0
   692  000EBE  140B               	andwf	___xxtofl@arg,w,c
   693  000EC0  6E05               	movwf	??___xxtofl& (0+255),c
   694  000EC2  0E00               	movlw	0
   695  000EC4  140C               	andwf	___xxtofl@arg+1,w,c
   696  000EC6  6E06               	movwf	(??___xxtofl+1)& (0+255),c
   697  000EC8  0E00               	movlw	0
   698  000ECA  140D               	andwf	___xxtofl@arg+2,w,c
   699  000ECC  6E07               	movwf	(??___xxtofl+2)& (0+255),c
   700  000ECE  0EFF               	movlw	255
   701  000ED0  140E               	andwf	___xxtofl@arg+3,w,c
   702  000ED2  6E08               	movwf	(??___xxtofl+3)& (0+255),c
   703  000ED4  5005               	movf	??___xxtofl,w,c
   704  000ED6  1006               	iorwf	??___xxtofl+1,w,c
   705  000ED8  1007               	iorwf	??___xxtofl+2,w,c
   706  000EDA  1008               	iorwf	??___xxtofl+3,w,c
   707  000EDC  B4D8               	btfsc	status,2,c
   708  000EDE  D007               	goto	l721
   709  000EE0  D7E1               	goto	l719
   710  000EE2  060A               	decf	___xxtofl@exp,f,c
   711  000EE4  90D8               	bcf	status,0,c
   712  000EE6  360B               	rlcf	___xxtofl@arg,f,c
   713  000EE8  360C               	rlcf	___xxtofl@arg+1,f,c
   714  000EEA  360D               	rlcf	___xxtofl@arg+2,f,c
   715  000EEC  360E               	rlcf	___xxtofl@arg+3,f,c
   716  000EEE                     l721:
   717  000EEE  BE0D               	btfsc	___xxtofl@arg+2,7,c
   718  000EF0  D003               	goto	u1600
   719  000EF2  0E02               	movlw	2
   720  000EF4  600A               	cpfslt	___xxtofl@exp,c
   721  000EF6  D7F5               	goto	l722
   722  000EF8                     u1600:
   723  000EF8  A00A               	btfss	___xxtofl@exp,0,c
   724  000EFA  9E0D               	bcf	___xxtofl@arg+2,7,c
   725  000EFC  90D8               	bcf	status,0,c
   726  000EFE  320A               	rrcf	___xxtofl@exp,f,c
   727  000F00  C00A  F005         	movff	___xxtofl@exp,??___xxtofl
   728  000F04  6A06               	clrf	(??___xxtofl+1)& (0+255),c
   729  000F06  6A07               	clrf	(??___xxtofl+2)& (0+255),c
   730  000F08  6A08               	clrf	(??___xxtofl+3)& (0+255),c
   731  000F0A  C005  F008         	movff	??___xxtofl,??___xxtofl+3
   732  000F0E  6A07               	clrf	??___xxtofl+2,c
   733  000F10  6A06               	clrf	??___xxtofl+1,c
   734  000F12  6A05               	clrf	??___xxtofl,c
   735  000F14  5005               	movf	??___xxtofl,w,c
   736  000F16  120B               	iorwf	___xxtofl@arg,f,c
   737  000F18  5006               	movf	??___xxtofl+1,w,c
   738  000F1A  120C               	iorwf	___xxtofl@arg+1,f,c
   739  000F1C  5007               	movf	??___xxtofl+2,w,c
   740  000F1E  120D               	iorwf	___xxtofl@arg+2,f,c
   741  000F20  5008               	movf	??___xxtofl+3,w,c
   742  000F22  120E               	iorwf	___xxtofl@arg+3,f,c
   743  000F24  5009               	movf	___xxtofl@sign,w,c
   744  000F26  A4D8               	btfss	status,2,c
   745  000F28  AE04               	btfss	___xxtofl@val+3,7,c
   746  000F2A  D001               	goto	l727
   747  000F2C  8E0E               	bsf	___xxtofl@arg+3,7,c
   748  000F2E                     l727:
   749  000F2E  C00B  F001         	movff	___xxtofl@arg,?___xxtofl
   750  000F32  C00C  F002         	movff	___xxtofl@arg+1,?___xxtofl+1
   751  000F36  C00D  F003         	movff	___xxtofl@arg+2,?___xxtofl+2
   752  000F3A  C00E  F004         	movff	___xxtofl@arg+3,?___xxtofl+3
   753  000F3E  0012               	return	
   754  000F40                     __end_of___xxtofl:
   755                           	opt stack 0
   756                           tblptru	equ	0xFF8
   757                           tblptrh	equ	0xFF7
   758                           tblptrl	equ	0xFF6
   759                           tablat	equ	0xFF5
   760                           status	equ	0xFD8
   761                           
   762 ;; *************** function ___fltol *****************
   763 ;; Defined at:
   764 ;;		line 43 in file "C:\Program Files (x86)\Microchip\xc8\v2.00\pic\sources\c99\common\fltol.c"
   765 ;; Parameters:    Size  Location     Type
   766 ;;  f1              4    0[COMRAM] unsigned char 
   767 ;; Auto vars:     Size  Location     Type
   768 ;;  exp1            1    9[COMRAM] unsigned char 
   769 ;;  sign1           1    8[COMRAM] unsigned char 
   770 ;; Return value:  Size  Location     Type
   771 ;;                  4    0[COMRAM] long 
   772 ;; Registers used:
   773 ;;		wreg, status,2, status,0
   774 ;; Tracked objects:
   775 ;;		On entry : 0/0
   776 ;;		On exit  : 0/0
   777 ;;		Unchanged: 0/0
   778 ;; Data sizes:     COMRAM   BANK0   BANK1   BANK2   BANK3   BANK4   BANK5   BANK6   BANK7
   779 ;;      Params:         4       0       0       0       0       0       0       0       0
   780 ;;      Locals:         2       0       0       0       0       0       0       0       0
   781 ;;      Temps:          4       0       0       0       0       0       0       0       0
   782 ;;      Totals:        10       0       0       0       0       0       0       0       0
   783 ;;Total ram usage:       10 bytes
   784 ;; Hardware stack levels used:    1
   785 ;; This function calls:
   786 ;;		Nothing
   787 ;; This function is called by:
   788 ;;		_USART_Init
   789 ;; This function uses a non-reentrant model
   790 ;;
   791                           
   792                           	psect	text5
   793  000F40                     __ptext5:
   794                           	opt stack 0
   795  000F40                     ___fltol:
   796                           	opt stack 29
   797                           
   798                           ;incstack = 0
   799  000F40  3403               	rlcf	___fltol@f1+2,w,c
   800  000F42  3404               	rlcf	___fltol@f1+3,w,c
   801  000F44  6E0A               	movwf	___fltol@exp1,c
   802  000F46  500A               	movf	___fltol@exp1,w,c
   803  000F48  A4D8               	btfss	status,2,c
   804  000F4A  D009               	goto	l352
   805  000F4C  0E00               	movlw	0
   806  000F4E  6E01               	movwf	?___fltol,c
   807  000F50  0E00               	movlw	0
   808  000F52  6E02               	movwf	?___fltol+1,c
   809  000F54  0E00               	movlw	0
   810  000F56  6E03               	movwf	?___fltol+2,c
   811  000F58  0E00               	movlw	0
   812  000F5A  6E04               	movwf	?___fltol+3,c
   813  000F5C  0012               	return	
   814  000F5E                     l352:
   815  000F5E  C001  F005         	movff	___fltol@f1,??___fltol
   816  000F62  C002  F006         	movff	___fltol@f1+1,??___fltol+1
   817  000F66  C003  F007         	movff	___fltol@f1+2,??___fltol+2
   818  000F6A  C004  F008         	movff	___fltol@f1+3,??___fltol+3
   819  000F6E  0E20               	movlw	32
   820  000F70  D005               	goto	u1480
   821  000F72                     u1485:
   822  000F72  90D8               	bcf	status,0,c
   823  000F74  3208               	rrcf	??___fltol+3,f,c
   824  000F76  3207               	rrcf	??___fltol+2,f,c
   825  000F78  3206               	rrcf	??___fltol+1,f,c
   826  000F7A  3205               	rrcf	??___fltol,f,c
   827  000F7C                     u1480:
   828  000F7C  2EE8               	decfsz	wreg,f,c
   829  000F7E  D7F9               	goto	u1485
   830  000F80  5005               	movf	??___fltol,w,c
   831  000F82  6E09               	movwf	___fltol@sign1,c
   832  000F84  8E03               	bsf	___fltol@f1+2,7,c
   833  000F86  0EFF               	movlw	255
   834  000F88  1601               	andwf	___fltol@f1,f,c
   835  000F8A  0EFF               	movlw	255
   836  000F8C  1602               	andwf	___fltol@f1+1,f,c
   837  000F8E  0EFF               	movlw	255
   838  000F90  1603               	andwf	___fltol@f1+2,f,c
   839  000F92  0E00               	movlw	0
   840  000F94  1604               	andwf	___fltol@f1+3,f,c
   841  000F96  0E96               	movlw	150
   842  000F98  5E0A               	subwf	___fltol@exp1,f,c
   843  000F9A  AE0A               	btfss	___fltol@exp1,7,c
   844  000F9C  D016               	goto	l354
   845  000F9E  500A               	movf	___fltol@exp1,w,c
   846  000FA0  0A80               	xorlw	128
   847  000FA2  0F97               	addlw	151
   848  000FA4  B0D8               	btfsc	status,0,c
   849  000FA6  D009               	goto	l355
   850  000FA8  0E00               	movlw	0
   851  000FAA  6E01               	movwf	?___fltol,c
   852  000FAC  0E00               	movlw	0
   853  000FAE  6E02               	movwf	?___fltol+1,c
   854  000FB0  0E00               	movlw	0
   855  000FB2  6E03               	movwf	?___fltol+2,c
   856  000FB4  0E00               	movlw	0
   857  000FB6  6E04               	movwf	?___fltol+3,c
   858  000FB8  0012               	return	
   859  000FBA                     l355:
   860  000FBA  90D8               	bcf	status,0,c
   861  000FBC  3204               	rrcf	___fltol@f1+3,f,c
   862  000FBE  3203               	rrcf	___fltol@f1+2,f,c
   863  000FC0  3202               	rrcf	___fltol@f1+1,f,c
   864  000FC2  3201               	rrcf	___fltol@f1,f,c
   865  000FC4  3E0A               	incfsz	___fltol@exp1,f,c
   866  000FC6  D7F9               	goto	l355
   867  000FC8  D015               	goto	u1520
   868  000FCA                     l354:
   869  000FCA  0E1F               	movlw	31
   870  000FCC  640A               	cpfsgt	___fltol@exp1,c
   871  000FCE  D00F               	goto	l360
   872  000FD0  0E00               	movlw	0
   873  000FD2  6E01               	movwf	?___fltol,c
   874  000FD4  0E00               	movlw	0
   875  000FD6  6E02               	movwf	?___fltol+1,c
   876  000FD8  0E00               	movlw	0
   877  000FDA  6E03               	movwf	?___fltol+2,c
   878  000FDC  0E00               	movlw	0
   879  000FDE  6E04               	movwf	?___fltol+3,c
   880  000FE0  0012               	return	
   881  000FE2  90D8               	bcf	status,0,c
   882  000FE4  3601               	rlcf	___fltol@f1,f,c
   883  000FE6  3602               	rlcf	___fltol@f1+1,f,c
   884  000FE8  3603               	rlcf	___fltol@f1+2,f,c
   885  000FEA  3604               	rlcf	___fltol@f1+3,f,c
   886  000FEC  060A               	decf	___fltol@exp1,f,c
   887  000FEE                     l360:
   888  000FEE  500A               	movf	___fltol@exp1,w,c
   889  000FF0  A4D8               	btfss	status,2,c
   890  000FF2  D7F7               	goto	l361
   891  000FF4                     u1520:
   892  000FF4  5009               	movf	___fltol@sign1,w,c
   893  000FF6  B4D8               	btfsc	status,2,c
   894  000FF8  D008               	goto	l363
   895  000FFA  1E04               	comf	___fltol@f1+3,f,c
   896  000FFC  1E03               	comf	___fltol@f1+2,f,c
   897  000FFE  1E02               	comf	___fltol@f1+1,f,c
   898  001000  6C01               	negf	___fltol@f1,c
   899  001002  0E00               	movlw	0
   900  001004  2202               	addwfc	___fltol@f1+1,f,c
   901  001006  2203               	addwfc	___fltol@f1+2,f,c
   902  001008  2204               	addwfc	___fltol@f1+3,f,c
   903  00100A                     l363:
   904  00100A  C001  F001         	movff	___fltol@f1,?___fltol
   905  00100E  C002  F002         	movff	___fltol@f1+1,?___fltol+1
   906  001012  C003  F003         	movff	___fltol@f1+2,?___fltol+2
   907  001016  C004  F004         	movff	___fltol@f1+3,?___fltol+3
   908  00101A  0012               	return	
   909  00101C                     __end_of___fltol:
   910                           	opt stack 0
   911                           tblptru	equ	0xFF8
   912                           tblptrh	equ	0xFF7
   913                           tblptrl	equ	0xFF6
   914                           tablat	equ	0xFF5
   915                           wreg	equ	0xFE8
   916                           status	equ	0xFD8
   917                           
   918 ;; *************** function ___fldiv *****************
   919 ;; Defined at:
   920 ;;		line 11 in file "C:\Program Files (x86)\Microchip\xc8\v2.00\pic\sources\c99\common\sprcdiv.c"
   921 ;; Parameters:    Size  Location     Type
   922 ;;  b               4   14[COMRAM] long 
   923 ;;  a               4   18[COMRAM] long 
   924 ;; Auto vars:     Size  Location     Type
   925 ;;  grs             4   33[COMRAM] unsigned long 
   926 ;;  rem             4   26[COMRAM] unsigned long 
   927 ;;  new_exp         2   31[COMRAM] short 
   928 ;;  aexp            1   38[COMRAM] unsigned char 
   929 ;;  bexp            1   37[COMRAM] unsigned char 
   930 ;;  sign            1   30[COMRAM] unsigned char 
   931 ;; Return value:  Size  Location     Type
   932 ;;                  4   14[COMRAM] unsigned char 
   933 ;; Registers used:
   934 ;;		wreg, status,2, status,0
   935 ;; Tracked objects:
   936 ;;		On entry : 0/0
   937 ;;		On exit  : 0/0
   938 ;;		Unchanged: 0/0
   939 ;; Data sizes:     COMRAM   BANK0   BANK1   BANK2   BANK3   BANK4   BANK5   BANK6   BANK7
   940 ;;      Params:         8       0       0       0       0       0       0       0       0
   941 ;;      Locals:        13       0       0       0       0       0       0       0       0
   942 ;;      Temps:          4       0       0       0       0       0       0       0       0
   943 ;;      Totals:        25       0       0       0       0       0       0       0       0
   944 ;;Total ram usage:       25 bytes
   945 ;; Hardware stack levels used:    1
   946 ;; This function calls:
   947 ;;		Nothing
   948 ;; This function is called by:
   949 ;;		_USART_Init
   950 ;; This function uses a non-reentrant model
   951 ;;
   952                           
   953                           	psect	text6
   954  000B48                     __ptext6:
   955                           	opt stack 0
   956  000B48                     ___fldiv:
   957                           	opt stack 29
   958                           
   959                           ;incstack = 0
   960  000B48  5012               	movf	___fldiv@b+3,w,c
   961  000B4A  0B80               	andlw	128
   962  000B4C  6E1F               	movwf	___fldiv@sign,c
   963  000B4E  5012               	movf	___fldiv@b+3,w,c
   964  000B50  2412               	addwf	___fldiv@b+3,w,c
   965  000B52  6E26               	movwf	___fldiv@bexp,c
   966  000B54  BE11               	btfsc	___fldiv@b+2,7,c
   967  000B56  8026               	bsf	___fldiv@bexp,0,c
   968  000B58  5026               	movf	___fldiv@bexp,w,c
   969  000B5A  B4D8               	btfsc	status,2,c
   970  000B5C  D00D               	goto	l630
   971  000B5E  2826               	incf	___fldiv@bexp,w,c
   972  000B60  A4D8               	btfss	status,2,c
   973  000B62  D008               	goto	l631
   974  000B64  0E00               	movlw	0
   975  000B66  6E0F               	movwf	___fldiv@b,c
   976  000B68  0E00               	movlw	0
   977  000B6A  6E10               	movwf	___fldiv@b+1,c
   978  000B6C  0E00               	movlw	0
   979  000B6E  6E11               	movwf	___fldiv@b+2,c
   980  000B70  0E00               	movlw	0
   981  000B72  6E12               	movwf	___fldiv@b+3,c
   982  000B74                     l631:
   983  000B74  8E11               	bsf	___fldiv@b+2,7,c
   984  000B76  D006               	goto	L1
   985  000B78                     l630:
   986  000B78  0E00               	movlw	0
   987  000B7A  6E0F               	movwf	___fldiv@b,c
   988  000B7C  0E00               	movlw	0
   989  000B7E  6E10               	movwf	___fldiv@b+1,c
   990  000B80  0E00               	movlw	0
   991  000B82  6E11               	movwf	___fldiv@b+2,c
   992  000B84                     L1:
   993  000B84  0E00               	movlw	0
   994  000B86  6E12               	movwf	___fldiv@b+3,c
   995  000B88  5016               	movf	___fldiv@a+3,w,c
   996  000B8A  0B80               	andlw	128
   997  000B8C  1A1F               	xorwf	___fldiv@sign,f,c
   998  000B8E  5016               	movf	___fldiv@a+3,w,c
   999  000B90  2416               	addwf	___fldiv@a+3,w,c
  1000  000B92  6E27               	movwf	___fldiv@aexp,c
  1001  000B94  BE15               	btfsc	___fldiv@a+2,7,c
  1002  000B96  8027               	bsf	___fldiv@aexp,0,c
  1003  000B98  5027               	movf	___fldiv@aexp,w,c
  1004  000B9A  B4D8               	btfsc	status,2,c
  1005  000B9C  D00D               	goto	l634
  1006  000B9E  2827               	incf	___fldiv@aexp,w,c
  1007  000BA0  A4D8               	btfss	status,2,c
  1008  000BA2  D008               	goto	l635
  1009  000BA4  0E00               	movlw	0
  1010  000BA6  6E13               	movwf	___fldiv@a,c
  1011  000BA8  0E00               	movlw	0
  1012  000BAA  6E14               	movwf	___fldiv@a+1,c
  1013  000BAC  0E00               	movlw	0
  1014  000BAE  6E15               	movwf	___fldiv@a+2,c
  1015  000BB0  0E00               	movlw	0
  1016  000BB2  6E16               	movwf	___fldiv@a+3,c
  1017  000BB4                     l635:
  1018  000BB4  8E15               	bsf	___fldiv@a+2,7,c
  1019  000BB6  D006               	goto	L2
  1020  000BB8                     l634:
  1021  000BB8  0E00               	movlw	0
  1022  000BBA  6E13               	movwf	___fldiv@a,c
  1023  000BBC  0E00               	movlw	0
  1024  000BBE  6E14               	movwf	___fldiv@a+1,c
  1025  000BC0  0E00               	movlw	0
  1026  000BC2  6E15               	movwf	___fldiv@a+2,c
  1027  000BC4                     L2:
  1028  000BC4  0E00               	movlw	0
  1029  000BC6  6E16               	movwf	___fldiv@a+3,c
  1030  000BC8  5013               	movf	___fldiv@a,w,c
  1031  000BCA  1014               	iorwf	___fldiv@a+1,w,c
  1032  000BCC  1015               	iorwf	___fldiv@a+2,w,c
  1033  000BCE  1016               	iorwf	___fldiv@a+3,w,c
  1034  000BD0  A4D8               	btfss	status,2,c
  1035  000BD2  D017               	goto	l637
  1036  000BD4  0E00               	movlw	0
  1037  000BD6  6E0F               	movwf	___fldiv@b,c
  1038  000BD8  0E00               	movlw	0
  1039  000BDA  6E10               	movwf	___fldiv@b+1,c
  1040  000BDC  0E00               	movlw	0
  1041  000BDE  6E11               	movwf	___fldiv@b+2,c
  1042  000BE0  0E00               	movlw	0
  1043  000BE2  6E12               	movwf	___fldiv@b+3,c
  1044  000BE4  0E80               	movlw	128
  1045  000BE6  1211               	iorwf	___fldiv@b+2,f,c
  1046  000BE8  0E7F               	movlw	127
  1047  000BEA  1212               	iorwf	___fldiv@b+3,f,c
  1048  000BEC  501F               	movf	___fldiv@sign,w,c
  1049  000BEE  1212               	iorwf	___fldiv@b+3,f,c
  1050  000BF0  C00F  F00F         	movff	___fldiv@b,?___fldiv
  1051  000BF4  C010  F010         	movff	___fldiv@b+1,?___fldiv+1
  1052  000BF8  C011  F011         	movff	___fldiv@b+2,?___fldiv+2
  1053  000BFC  C012  F012         	movff	___fldiv@b+3,?___fldiv+3
  1054  000C00  0012               	return	
  1055  000C02                     l637:
  1056  000C02  5026               	movf	___fldiv@bexp,w,c
  1057  000C04  A4D8               	btfss	status,2,c
  1058  000C06  D011               	goto	l639
  1059  000C08  0E00               	movlw	0
  1060  000C0A  6E0F               	movwf	___fldiv@b,c
  1061  000C0C  0E00               	movlw	0
  1062  000C0E  6E10               	movwf	___fldiv@b+1,c
  1063  000C10  0E00               	movlw	0
  1064  000C12  6E11               	movwf	___fldiv@b+2,c
  1065  000C14  0E00               	movlw	0
  1066  000C16  6E12               	movwf	___fldiv@b+3,c
  1067  000C18  C00F  F00F         	movff	___fldiv@b,?___fldiv
  1068  000C1C  C010  F010         	movff	___fldiv@b+1,?___fldiv+1
  1069  000C20  C011  F011         	movff	___fldiv@b+2,?___fldiv+2
  1070  000C24  C012  F012         	movff	___fldiv@b+3,?___fldiv+3
  1071  000C28  0012               	return	
  1072  000C2A                     l639:
  1073  000C2A  5027               	movf	___fldiv@aexp,w,c
  1074  000C2C  6E17               	movwf	??___fldiv& (0+255),c
  1075  000C2E  6A18               	clrf	(??___fldiv+1)& (0+255),c
  1076  000C30  1E17               	comf	??___fldiv,f,c
  1077  000C32  1E18               	comf	??___fldiv+1,f,c
  1078  000C34  4A17               	infsnz	??___fldiv,f,c
  1079  000C36  2A18               	incf	??___fldiv+1,f,c
  1080  000C38  5026               	movf	___fldiv@bexp,w,c
  1081  000C3A  6E19               	movwf	(??___fldiv+2)& (0+255),c
  1082  000C3C  6A1A               	clrf	(??___fldiv+3)& (0+255),c
  1083  000C3E  5017               	movf	??___fldiv,w,c
  1084  000C40  2619               	addwf	??___fldiv+2,f,c
  1085  000C42  5018               	movf	??___fldiv+1,w,c
  1086  000C44  221A               	addwfc	??___fldiv+3,f,c
  1087  000C46  0E7F               	movlw	127
  1088  000C48  2419               	addwf	??___fldiv+2,w,c
  1089  000C4A  6E20               	movwf	___fldiv@new_exp,c
  1090  000C4C  0E00               	movlw	0
  1091  000C4E  201A               	addwfc	??___fldiv+3,w,c
  1092  000C50  6E21               	movwf	___fldiv@new_exp+1,c
  1093  000C52  C00F  F01B         	movff	___fldiv@b,___fldiv@rem
  1094  000C56  C010  F01C         	movff	___fldiv@b+1,___fldiv@rem+1
  1095  000C5A  C011  F01D         	movff	___fldiv@b+2,___fldiv@rem+2
  1096  000C5E  C012  F01E         	movff	___fldiv@b+3,___fldiv@rem+3
  1097  000C62  0E00               	movlw	0
  1098  000C64  6E0F               	movwf	___fldiv@b,c
  1099  000C66  0E00               	movlw	0
  1100  000C68  6E10               	movwf	___fldiv@b+1,c
  1101  000C6A  0E00               	movlw	0
  1102  000C6C  6E11               	movwf	___fldiv@b+2,c
  1103  000C6E  0E00               	movlw	0
  1104  000C70  6E12               	movwf	___fldiv@b+3,c
  1105  000C72  0E00               	movlw	0
  1106  000C74  6E22               	movwf	___fldiv@grs,c
  1107  000C76  0E00               	movlw	0
  1108  000C78  6E23               	movwf	___fldiv@grs+1,c
  1109  000C7A  0E00               	movlw	0
  1110  000C7C  6E24               	movwf	___fldiv@grs+2,c
  1111  000C7E  0E00               	movlw	0
  1112  000C80  6E25               	movwf	___fldiv@grs+3,c
  1113  000C82  0E00               	movlw	0
  1114  000C84  6E27               	movwf	___fldiv@aexp,c
  1115  000C86  D028               	goto	l640
  1116  000C88  5027               	movf	___fldiv@aexp,w,c
  1117  000C8A  B4D8               	btfsc	status,2,c
  1118  000C8C  D011               	goto	l642
  1119  000C8E  90D8               	bcf	status,0,c
  1120  000C90  361B               	rlcf	___fldiv@rem,f,c
  1121  000C92  361C               	rlcf	___fldiv@rem+1,f,c
  1122  000C94  361D               	rlcf	___fldiv@rem+2,f,c
  1123  000C96  361E               	rlcf	___fldiv@rem+3,f,c
  1124  000C98  90D8               	bcf	status,0,c
  1125  000C9A  360F               	rlcf	___fldiv@b,f,c
  1126  000C9C  3610               	rlcf	___fldiv@b+1,f,c
  1127  000C9E  3611               	rlcf	___fldiv@b+2,f,c
  1128  000CA0  3612               	rlcf	___fldiv@b+3,f,c
  1129  000CA2  BE25               	btfsc	___fldiv@grs+3,7,c
  1130  000CA4  800F               	bsf	___fldiv@b,0,c
  1131  000CA6  90D8               	bcf	status,0,c
  1132  000CA8  3622               	rlcf	___fldiv@grs,f,c
  1133  000CAA  3623               	rlcf	___fldiv@grs+1,f,c
  1134  000CAC  3624               	rlcf	___fldiv@grs+2,f,c
  1135  000CAE  3625               	rlcf	___fldiv@grs+3,f,c
  1136  000CB0                     l642:
  1137  000CB0  5013               	movf	___fldiv@a,w,c
  1138  000CB2  5C1B               	subwf	___fldiv@rem,w,c
  1139  000CB4  5014               	movf	___fldiv@a+1,w,c
  1140  000CB6  581C               	subwfb	___fldiv@rem+1,w,c
  1141  000CB8  5015               	movf	___fldiv@a+2,w,c
  1142  000CBA  581D               	subwfb	___fldiv@rem+2,w,c
  1143  000CBC  5016               	movf	___fldiv@a+3,w,c
  1144  000CBE  581E               	subwfb	___fldiv@rem+3,w,c
  1145  000CC0  A0D8               	btfss	status,0,c
  1146  000CC2  D009               	goto	l644
  1147  000CC4  8C25               	bsf	___fldiv@grs+3,6,c
  1148  000CC6  5013               	movf	___fldiv@a,w,c
  1149  000CC8  5E1B               	subwf	___fldiv@rem,f,c
  1150  000CCA  5014               	movf	___fldiv@a+1,w,c
  1151  000CCC  5A1C               	subwfb	___fldiv@rem+1,f,c
  1152  000CCE  5015               	movf	___fldiv@a+2,w,c
  1153  000CD0  5A1D               	subwfb	___fldiv@rem+2,f,c
  1154  000CD2  5016               	movf	___fldiv@a+3,w,c
  1155  000CD4  5A1E               	subwfb	___fldiv@rem+3,f,c
  1156  000CD6                     l644:
  1157  000CD6  2A27               	incf	___fldiv@aexp,f,c
  1158  000CD8                     l640:
  1159  000CD8  0E19               	movlw	25
  1160  000CDA  6427               	cpfsgt	___fldiv@aexp,c
  1161  000CDC  D7D5               	goto	l641
  1162  000CDE  501B               	movf	___fldiv@rem,w,c
  1163  000CE0  101C               	iorwf	___fldiv@rem+1,w,c
  1164  000CE2  101D               	iorwf	___fldiv@rem+2,w,c
  1165  000CE4  101E               	iorwf	___fldiv@rem+3,w,c
  1166  000CE6  B4D8               	btfsc	status,2,c
  1167  000CE8  D011               	goto	l647
  1168  000CEA  8022               	bsf	___fldiv@grs,0,c
  1169  000CEC  D00F               	goto	l647
  1170  000CEE  90D8               	bcf	status,0,c
  1171  000CF0  360F               	rlcf	___fldiv@b,f,c
  1172  000CF2  3610               	rlcf	___fldiv@b+1,f,c
  1173  000CF4  3611               	rlcf	___fldiv@b+2,f,c
  1174  000CF6  3612               	rlcf	___fldiv@b+3,f,c
  1175  000CF8  BE25               	btfsc	___fldiv@grs+3,7,c
  1176  000CFA  800F               	bsf	___fldiv@b,0,c
  1177  000CFC  90D8               	bcf	status,0,c
  1178  000CFE  3622               	rlcf	___fldiv@grs,f,c
  1179  000D00  3623               	rlcf	___fldiv@grs+1,f,c
  1180  000D02  3624               	rlcf	___fldiv@grs+2,f,c
  1181  000D04  3625               	rlcf	___fldiv@grs+3,f,c
  1182  000D06  0620               	decf	___fldiv@new_exp,f,c
  1183  000D08  A0D8               	btfss	status,0,c
  1184  000D0A  0621               	decf	___fldiv@new_exp+1,f,c
  1185  000D0C                     l647:
  1186  000D0C  AE11               	btfss	___fldiv@b+2,7,c
  1187  000D0E  D7EF               	goto	l648
  1188  000D10  0E00               	movlw	0
  1189  000D12  6E27               	movwf	___fldiv@aexp,c
  1190  000D14  AE25               	btfss	___fldiv@grs+3,7,c
  1191  000D16  D016               	goto	l654
  1192  000D18  0EFF               	movlw	255
  1193  000D1A  1422               	andwf	___fldiv@grs,w,c
  1194  000D1C  6E17               	movwf	??___fldiv& (0+255),c
  1195  000D1E  0EFF               	movlw	255
  1196  000D20  1423               	andwf	___fldiv@grs+1,w,c
  1197  000D22  6E18               	movwf	(??___fldiv+1)& (0+255),c
  1198  000D24  0EFF               	movlw	255
  1199  000D26  1424               	andwf	___fldiv@grs+2,w,c
  1200  000D28  6E19               	movwf	(??___fldiv+2)& (0+255),c
  1201  000D2A  0E7F               	movlw	127
  1202  000D2C  1425               	andwf	___fldiv@grs+3,w,c
  1203  000D2E  6E1A               	movwf	(??___fldiv+3)& (0+255),c
  1204  000D30  5017               	movf	??___fldiv,w,c
  1205  000D32  1018               	iorwf	??___fldiv+1,w,c
  1206  000D34  1019               	iorwf	??___fldiv+2,w,c
  1207  000D36  101A               	iorwf	??___fldiv+3,w,c
  1208  000D38  A4D8               	btfss	status,2,c
  1209  000D3A  D002               	goto	u1410
  1210  000D3C  A00F               	btfss	___fldiv@b,0,c
  1211  000D3E  D002               	goto	l654
  1212  000D40                     u1410:
  1213  000D40  0E01               	movlw	1
  1214  000D42  6E27               	movwf	___fldiv@aexp,c
  1215  000D44                     l654:
  1216  000D44  5027               	movf	___fldiv@aexp,w,c
  1217  000D46  B4D8               	btfsc	status,2,c
  1218  000D48  D01F               	goto	l656
  1219  000D4A  0E01               	movlw	1
  1220  000D4C  260F               	addwf	___fldiv@b,f,c
  1221  000D4E  0E00               	movlw	0
  1222  000D50  2210               	addwfc	___fldiv@b+1,f,c
  1223  000D52  2211               	addwfc	___fldiv@b+2,f,c
  1224  000D54  2212               	addwfc	___fldiv@b+3,f,c
  1225  000D56  A012               	btfss	___fldiv@b+3,0,c
  1226  000D58  D017               	goto	l656
  1227  000D5A  C00F  F017         	movff	___fldiv@b,??___fldiv
  1228  000D5E  C010  F018         	movff	___fldiv@b+1,??___fldiv+1
  1229  000D62  C011  F019         	movff	___fldiv@b+2,??___fldiv+2
  1230  000D66  C012  F01A         	movff	___fldiv@b+3,??___fldiv+3
  1231  000D6A  341A               	rlcf	??___fldiv+3,w,c
  1232  000D6C  321A               	rrcf	??___fldiv+3,f,c
  1233  000D6E  3219               	rrcf	??___fldiv+2,f,c
  1234  000D70  3218               	rrcf	??___fldiv+1,f,c
  1235  000D72  3217               	rrcf	??___fldiv,f,c
  1236  000D74  C017  F00F         	movff	??___fldiv,___fldiv@b
  1237  000D78  C018  F010         	movff	??___fldiv+1,___fldiv@b+1
  1238  000D7C  C019  F011         	movff	??___fldiv+2,___fldiv@b+2
  1239  000D80  C01A  F012         	movff	??___fldiv+3,___fldiv@b+3
  1240  000D84  4A20               	infsnz	___fldiv@new_exp,f,c
  1241  000D86  2A21               	incf	___fldiv@new_exp+1,f,c
  1242  000D88                     l656:
  1243  000D88  BE21               	btfsc	___fldiv@new_exp+1,7,c
  1244  000D8A  D010               	goto	l657
  1245  000D8C  5021               	movf	___fldiv@new_exp+1,w,c
  1246  000D8E  E103               	bnz	u1440
  1247  000D90  2820               	incf	___fldiv@new_exp,w,c
  1248  000D92  A0D8               	btfss	status,0,c
  1249  000D94  D00B               	goto	l657
  1250  000D96                     u1440:
  1251  000D96  0E00               	movlw	0
  1252  000D98  6E21               	movwf	___fldiv@new_exp+1,c
  1253  000D9A  6820               	setf	___fldiv@new_exp,c
  1254  000D9C  0E00               	movlw	0
  1255  000D9E  6E0F               	movwf	___fldiv@b,c
  1256  000DA0  0E00               	movlw	0
  1257  000DA2  6E10               	movwf	___fldiv@b+1,c
  1258  000DA4  0E00               	movlw	0
  1259  000DA6  6E11               	movwf	___fldiv@b+2,c
  1260  000DA8  0E00               	movlw	0
  1261  000DAA  6E12               	movwf	___fldiv@b+3,c
  1262  000DAC                     l657:
  1263  000DAC  BE21               	btfsc	___fldiv@new_exp+1,7,c
  1264  000DAE  D005               	goto	u1450
  1265  000DB0  5021               	movf	___fldiv@new_exp+1,w,c
  1266  000DB2  E111               	bnz	l1527
  1267  000DB4  0420               	decf	___fldiv@new_exp,w,c
  1268  000DB6  B0D8               	btfsc	status,0,c
  1269  000DB8  D00E               	goto	l658
  1270  000DBA                     u1450:
  1271  000DBA  0E00               	movlw	0
  1272  000DBC  6E21               	movwf	___fldiv@new_exp+1,c
  1273  000DBE  0E00               	movlw	0
  1274  000DC0  6E20               	movwf	___fldiv@new_exp,c
  1275  000DC2  0E00               	movlw	0
  1276  000DC4  6E0F               	movwf	___fldiv@b,c
  1277  000DC6  0E00               	movlw	0
  1278  000DC8  6E10               	movwf	___fldiv@b+1,c
  1279  000DCA  0E00               	movlw	0
  1280  000DCC  6E11               	movwf	___fldiv@b+2,c
  1281  000DCE  0E00               	movlw	0
  1282  000DD0  6E12               	movwf	___fldiv@b+3,c
  1283  000DD2  0E00               	movlw	0
  1284  000DD4  6E1F               	movwf	___fldiv@sign,c
  1285  000DD6                     l658:
  1286  000DD6                     l1527:
  1287  000DD6  C020  F026         	movff	___fldiv@new_exp,___fldiv@bexp
  1288  000DDA  A026               	btfss	___fldiv@bexp,0,c
  1289  000DDC  D002               	goto	l659
  1290  000DDE  8E11               	bsf	___fldiv@b+2,7,c
  1291  000DE0  D001               	goto	l660
  1292  000DE2                     l659:
  1293  000DE2  9E11               	bcf	___fldiv@b+2,7,c
  1294  000DE4                     l660:
  1295  000DE4  90D8               	bcf	status,0,c
  1296  000DE6  3026               	rrcf	___fldiv@bexp,w,c
  1297  000DE8  6E12               	movwf	___fldiv@b+3,c
  1298  000DEA  501F               	movf	___fldiv@sign,w,c
  1299  000DEC  1212               	iorwf	___fldiv@b+3,f,c
  1300  000DEE  C00F  F00F         	movff	___fldiv@b,?___fldiv
  1301  000DF2  C010  F010         	movff	___fldiv@b+1,?___fldiv+1
  1302  000DF6  C011  F011         	movff	___fldiv@b+2,?___fldiv+2
  1303  000DFA  C012  F012         	movff	___fldiv@b+3,?___fldiv+3
  1304  000DFE  0012               	return	
  1305  000E00                     __end_of___fldiv:
  1306                           	opt stack 0
  1307                           tblptru	equ	0xFF8
  1308                           tblptrh	equ	0xFF7
  1309                           tblptrl	equ	0xFF6
  1310                           tablat	equ	0xFF5
  1311                           wreg	equ	0xFE8
  1312                           status	equ	0xFD8
  1313                           
  1314 ;; *************** function ___fladd *****************
  1315 ;; Defined at:
  1316 ;;		line 10 in file "C:\Program Files (x86)\Microchip\xc8\v2.00\pic\sources\c99\common\sprcadd.c"
  1317 ;; Parameters:    Size  Location     Type
  1318 ;;  b               4   39[COMRAM] unsigned char 
  1319 ;;  a               4   43[COMRAM] unsigned char 
  1320 ;; Auto vars:     Size  Location     Type
  1321 ;;  grs             1   58[COMRAM] unsigned char 
  1322 ;;  bexp            1   57[COMRAM] unsigned char 
  1323 ;;  aexp            1   56[COMRAM] unsigned char 
  1324 ;;  signs           1   55[COMRAM] unsigned char 
  1325 ;; Return value:  Size  Location     Type
  1326 ;;                  4   39[COMRAM] unsigned char 
  1327 ;; Registers used:
  1328 ;;		wreg, status,2, status,0
  1329 ;; Tracked objects:
  1330 ;;		On entry : 0/0
  1331 ;;		On exit  : 0/0
  1332 ;;		Unchanged: 0/0
  1333 ;; Data sizes:     COMRAM   BANK0   BANK1   BANK2   BANK3   BANK4   BANK5   BANK6   BANK7
  1334 ;;      Params:         8       0       0       0       0       0       0       0       0
  1335 ;;      Locals:         4       0       0       0       0       0       0       0       0
  1336 ;;      Temps:          8       0       0       0       0       0       0       0       0
  1337 ;;      Totals:        20       0       0       0       0       0       0       0       0
  1338 ;;Total ram usage:       20 bytes
  1339 ;; Hardware stack levels used:    1
  1340 ;; This function calls:
  1341 ;;		Nothing
  1342 ;; This function is called by:
  1343 ;;		_USART_Init
  1344 ;; This function uses a non-reentrant model
  1345 ;;
  1346                           
  1347                           	psect	text7
  1348  00080E                     __ptext7:
  1349                           	opt stack 0
  1350  00080E                     ___fladd:
  1351                           	opt stack 29
  1352                           
  1353                           ;incstack = 0
  1354  00080E  502B               	movf	___fladd@b+3,w,c
  1355  000810  0B80               	andlw	128
  1356  000812  6E38               	movwf	___fladd@signs,c
  1357  000814  502B               	movf	___fladd@b+3,w,c
  1358  000816  242B               	addwf	___fladd@b+3,w,c
  1359  000818  6E3A               	movwf	___fladd@bexp,c
  1360  00081A  BE2A               	btfsc	___fladd@b+2,7,c
  1361  00081C  803A               	bsf	___fladd@bexp,0,c
  1362  00081E  503A               	movf	___fladd@bexp,w,c
  1363  000820  B4D8               	btfsc	status,2,c
  1364  000822  D00D               	goto	l573
  1365  000824  283A               	incf	___fladd@bexp,w,c
  1366  000826  A4D8               	btfss	status,2,c
  1367  000828  D008               	goto	l574
  1368  00082A  0E00               	movlw	0
  1369  00082C  6E28               	movwf	___fladd@b,c
  1370  00082E  0E00               	movlw	0
  1371  000830  6E29               	movwf	___fladd@b+1,c
  1372  000832  0E00               	movlw	0
  1373  000834  6E2A               	movwf	___fladd@b+2,c
  1374  000836  0E00               	movlw	0
  1375  000838  6E2B               	movwf	___fladd@b+3,c
  1376  00083A                     l574:
  1377  00083A  8E2A               	bsf	___fladd@b+2,7,c
  1378  00083C  D006               	goto	L3
  1379  00083E                     l573:
  1380  00083E  0E00               	movlw	0
  1381  000840  6E28               	movwf	___fladd@b,c
  1382  000842  0E00               	movlw	0
  1383  000844  6E29               	movwf	___fladd@b+1,c
  1384  000846  0E00               	movlw	0
  1385  000848  6E2A               	movwf	___fladd@b+2,c
  1386  00084A                     L3:
  1387  00084A  0E00               	movlw	0
  1388  00084C  6E2B               	movwf	___fladd@b+3,c
  1389  00084E  502F               	movf	___fladd@a+3,w,c
  1390  000850  0B80               	andlw	128
  1391  000852  6E39               	movwf	___fladd@aexp,c
  1392  000854  5038               	movf	___fladd@signs,w,c
  1393  000856  1839               	xorwf	___fladd@aexp,w,c
  1394  000858  A4D8               	btfss	status,2,c
  1395  00085A  8C38               	bsf	___fladd@signs,6,c
  1396  00085C  502F               	movf	___fladd@a+3,w,c
  1397  00085E  242F               	addwf	___fladd@a+3,w,c
  1398  000860  6E39               	movwf	___fladd@aexp,c
  1399  000862  BE2E               	btfsc	___fladd@a+2,7,c
  1400  000864  8039               	bsf	___fladd@aexp,0,c
  1401  000866  5039               	movf	___fladd@aexp,w,c
  1402  000868  B4D8               	btfsc	status,2,c
  1403  00086A  D00D               	goto	l578
  1404  00086C  2839               	incf	___fladd@aexp,w,c
  1405  00086E  A4D8               	btfss	status,2,c
  1406  000870  D008               	goto	l579
  1407  000872  0E00               	movlw	0
  1408  000874  6E2C               	movwf	___fladd@a,c
  1409  000876  0E00               	movlw	0
  1410  000878  6E2D               	movwf	___fladd@a+1,c
  1411  00087A  0E00               	movlw	0
  1412  00087C  6E2E               	movwf	___fladd@a+2,c
  1413  00087E  0E00               	movlw	0
  1414  000880  6E2F               	movwf	___fladd@a+3,c
  1415  000882                     l579:
  1416  000882  8E2E               	bsf	___fladd@a+2,7,c
  1417  000884  D006               	goto	L4
  1418  000886                     l578:
  1419  000886  0E00               	movlw	0
  1420  000888  6E2C               	movwf	___fladd@a,c
  1421  00088A  0E00               	movlw	0
  1422  00088C  6E2D               	movwf	___fladd@a+1,c
  1423  00088E  0E00               	movlw	0
  1424  000890  6E2E               	movwf	___fladd@a+2,c
  1425  000892                     L4:
  1426  000892  0E00               	movlw	0
  1427  000894  6E2F               	movwf	___fladd@a+3,c
  1428  000896  503A               	movf	___fladd@bexp,w,c
  1429  000898  5C39               	subwf	___fladd@aexp,w,c
  1430  00089A  B0D8               	btfsc	status,0,c
  1431  00089C  D022               	goto	l581
  1432  00089E  AC38               	btfss	___fladd@signs,6,c
  1433  0008A0  D002               	goto	l582
  1434  0008A2  0E80               	movlw	128
  1435  0008A4  1A38               	xorwf	___fladd@signs,f,c
  1436  0008A6                     l582:
  1437  0008A6  C03A  F03B         	movff	___fladd@bexp,___fladd@grs
  1438  0008AA  C039  F03A         	movff	___fladd@aexp,___fladd@bexp
  1439  0008AE  C03B  F039         	movff	___fladd@grs,___fladd@aexp
  1440  0008B2  C028  F03B         	movff	___fladd@b,___fladd@grs
  1441  0008B6  C02C  F028         	movff	___fladd@a,___fladd@b
  1442  0008BA  C03B  F02C         	movff	___fladd@grs,___fladd@a
  1443  0008BE  C029  F03B         	movff	___fladd@b+1,___fladd@grs
  1444  0008C2  C02D  F029         	movff	___fladd@a+1,___fladd@b+1
  1445  0008C6  C03B  F02D         	movff	___fladd@grs,___fladd@a+1
  1446  0008CA  C02A  F03B         	movff	___fladd@b+2,___fladd@grs
  1447  0008CE  C02E  F02A         	movff	___fladd@a+2,___fladd@b+2
  1448  0008D2  C03B  F02E         	movff	___fladd@grs,___fladd@a+2
  1449  0008D6  C02B  F03B         	movff	___fladd@b+3,___fladd@grs
  1450  0008DA  C02F  F02B         	movff	___fladd@a+3,___fladd@b+3
  1451  0008DE  C03B  F02F         	movff	___fladd@grs,___fladd@a+3
  1452  0008E2                     l581:
  1453  0008E2  0E00               	movlw	0
  1454  0008E4  6E3B               	movwf	___fladd@grs,c
  1455  0008E6  503A               	movf	___fladd@bexp,w,c
  1456  0008E8  6E30               	movwf	??___fladd& (0+255),c
  1457  0008EA  6A31               	clrf	(??___fladd+1)& (0+255),c
  1458  0008EC  1E30               	comf	??___fladd,f,c
  1459  0008EE  1E31               	comf	??___fladd+1,f,c
  1460  0008F0  4A30               	infsnz	??___fladd,f,c
  1461  0008F2  2A31               	incf	??___fladd+1,f,c
  1462  0008F4  5039               	movf	___fladd@aexp,w,c
  1463  0008F6  6E32               	movwf	(??___fladd+2)& (0+255),c
  1464  0008F8  6A33               	clrf	(??___fladd+3)& (0+255),c
  1465  0008FA  5030               	movf	??___fladd,w,c
  1466  0008FC  2632               	addwf	??___fladd+2,f,c
  1467  0008FE  5031               	movf	??___fladd+1,w,c
  1468  000900  2233               	addwfc	??___fladd+3,f,c
  1469  000902  BE33               	btfsc	??___fladd+3,7,c
  1470  000904  D02C               	goto	l585
  1471  000906  5033               	movf	??___fladd+3,w,c
  1472  000908  E104               	bnz	u940
  1473  00090A  0E1A               	movlw	26
  1474  00090C  5C32               	subwf	??___fladd+2,w,c
  1475  00090E  A0D8               	btfss	status,0,c
  1476  000910  D026               	goto	l585
  1477  000912                     u940:
  1478  000912  5028               	movf	___fladd@b,w,c
  1479  000914  1029               	iorwf	___fladd@b+1,w,c
  1480  000916  102A               	iorwf	___fladd@b+2,w,c
  1481  000918  102B               	iorwf	___fladd@b+3,w,c
  1482  00091A  B4D8               	btfsc	status,2,c
  1483  00091C  D002               	goto	u950
  1484  00091E  0E01               	movlw	1
  1485  000920  D001               	goto	u960
  1486  000922                     u950:
  1487  000922  0E00               	movlw	0
  1488  000924                     u960:
  1489  000924  6E3B               	movwf	___fladd@grs,c
  1490  000926  0E00               	movlw	0
  1491  000928  6E28               	movwf	___fladd@b,c
  1492  00092A  0E00               	movlw	0
  1493  00092C  6E29               	movwf	___fladd@b+1,c
  1494  00092E  0E00               	movlw	0
  1495  000930  6E2A               	movwf	___fladd@b+2,c
  1496  000932  0E00               	movlw	0
  1497  000934  6E2B               	movwf	___fladd@b+3,c
  1498  000936  C039  F03A         	movff	___fladd@aexp,___fladd@bexp
  1499  00093A  D015               	goto	u990
  1500  00093C                     l586:
  1501  00093C  A03B               	btfss	___fladd@grs,0,c
  1502  00093E  D005               	goto	l587
  1503  000940  90D8               	bcf	status,0,c
  1504  000942  303B               	rrcf	___fladd@grs,w,c
  1505  000944  0901               	iorlw	1
  1506  000946  6E3B               	movwf	___fladd@grs,c
  1507  000948  D002               	goto	l588
  1508  00094A                     l587:
  1509  00094A  90D8               	bcf	status,0,c
  1510  00094C  323B               	rrcf	___fladd@grs,f,c
  1511  00094E                     l588:
  1512  00094E  B028               	btfsc	___fladd@b,0,c
  1513  000950  8E3B               	bsf	___fladd@grs,7,c
  1514  000952  342B               	rlcf	___fladd@b+3,w,c
  1515  000954  322B               	rrcf	___fladd@b+3,f,c
  1516  000956  322A               	rrcf	___fladd@b+2,f,c
  1517  000958  3229               	rrcf	___fladd@b+1,f,c
  1518  00095A  3228               	rrcf	___fladd@b,f,c
  1519  00095C  2A3A               	incf	___fladd@bexp,f,c
  1520  00095E                     l585:
  1521  00095E  5039               	movf	___fladd@aexp,w,c
  1522  000960  5C3A               	subwf	___fladd@bexp,w,c
  1523  000962  A0D8               	btfss	status,0,c
  1524  000964  D7EB               	goto	l586
  1525  000966                     u990:
  1526  000966  BC38               	btfsc	___fladd@signs,6,c
  1527  000968  D028               	goto	l591
  1528  00096A  503A               	movf	___fladd@bexp,w,c
  1529  00096C  A4D8               	btfss	status,2,c
  1530  00096E  D009               	goto	l592
  1531  000970  0E00               	movlw	0
  1532  000972  6E28               	movwf	?___fladd,c
  1533  000974  0E00               	movlw	0
  1534  000976  6E29               	movwf	?___fladd+1,c
  1535  000978  0E00               	movlw	0
  1536  00097A  6E2A               	movwf	?___fladd+2,c
  1537  00097C  0E00               	movlw	0
  1538  00097E  6E2B               	movwf	?___fladd+3,c
  1539  000980  0012               	return	
  1540  000982                     l592:
  1541  000982  502C               	movf	___fladd@a,w,c
  1542  000984  2628               	addwf	___fladd@b,f,c
  1543  000986  502D               	movf	___fladd@a+1,w,c
  1544  000988  2229               	addwfc	___fladd@b+1,f,c
  1545  00098A  502E               	movf	___fladd@a+2,w,c
  1546  00098C  222A               	addwfc	___fladd@b+2,f,c
  1547  00098E  502F               	movf	___fladd@a+3,w,c
  1548  000990  222B               	addwfc	___fladd@b+3,f,c
  1549  000992  A02B               	btfss	___fladd@b+3,0,c
  1550  000994  D082               	goto	u1120
  1551  000996  A03B               	btfss	___fladd@grs,0,c
  1552  000998  D005               	goto	l595
  1553  00099A  90D8               	bcf	status,0,c
  1554  00099C  303B               	rrcf	___fladd@grs,w,c
  1555  00099E  0901               	iorlw	1
  1556  0009A0  6E3B               	movwf	___fladd@grs,c
  1557  0009A2  D002               	goto	l596
  1558  0009A4                     l595:
  1559  0009A4  90D8               	bcf	status,0,c
  1560  0009A6  323B               	rrcf	___fladd@grs,f,c
  1561  0009A8                     l596:
  1562  0009A8  B028               	btfsc	___fladd@b,0,c
  1563  0009AA  8E3B               	bsf	___fladd@grs,7,c
  1564  0009AC  342B               	rlcf	___fladd@b+3,w,c
  1565  0009AE  322B               	rrcf	___fladd@b+3,f,c
  1566  0009B0  322A               	rrcf	___fladd@b+2,f,c
  1567  0009B2  3229               	rrcf	___fladd@b+1,f,c
  1568  0009B4  3228               	rrcf	___fladd@b,f,c
  1569  0009B6  2A3A               	incf	___fladd@bexp,f,c
  1570  0009B8  D070               	goto	u1120
  1571  0009BA                     l591:
  1572  0009BA  502C               	movf	___fladd@a,w,c
  1573  0009BC  5C28               	subwf	___fladd@b,w,c
  1574  0009BE  502D               	movf	___fladd@a+1,w,c
  1575  0009C0  5829               	subwfb	___fladd@b+1,w,c
  1576  0009C2  502E               	movf	___fladd@a+2,w,c
  1577  0009C4  582A               	subwfb	___fladd@b+2,w,c
  1578  0009C6  502B               	movf	___fladd@b+3,w,c
  1579  0009C8  0A80               	xorlw	128
  1580  0009CA  6E30               	movwf	??___fladd& (0+255),c
  1581  0009CC  502F               	movf	___fladd@a+3,w,c
  1582  0009CE  0A80               	xorlw	128
  1583  0009D0  5830               	subwfb	??___fladd& (0+255),w,c
  1584  0009D2  B0D8               	btfsc	status,0,c
  1585  0009D4  D036               	goto	l599
  1586  0009D6  C028  F030         	movff	___fladd@b,??___fladd
  1587  0009DA  C029  F031         	movff	___fladd@b+1,??___fladd+1
  1588  0009DE  C02A  F032         	movff	___fladd@b+2,??___fladd+2
  1589  0009E2  C02B  F033         	movff	___fladd@b+3,??___fladd+3
  1590  0009E6  1E30               	comf	??___fladd,f,c
  1591  0009E8  1E31               	comf	??___fladd+1,f,c
  1592  0009EA  1E32               	comf	??___fladd+2,f,c
  1593  0009EC  1E33               	comf	??___fladd+3,f,c
  1594  0009EE  2A30               	incf	??___fladd,f,c
  1595  0009F0  0E00               	movlw	0
  1596  0009F2  2231               	addwfc	??___fladd+1,f,c
  1597  0009F4  2232               	addwfc	??___fladd+2,f,c
  1598  0009F6  2233               	addwfc	??___fladd+3,f,c
  1599  0009F8  502C               	movf	___fladd@a,w,c
  1600  0009FA  2430               	addwf	??___fladd,w,c
  1601  0009FC  6E34               	movwf	(??___fladd+4)& (0+255),c
  1602  0009FE  502D               	movf	___fladd@a+1,w,c
  1603  000A00  2031               	addwfc	??___fladd+1,w,c
  1604  000A02  6E35               	movwf	(??___fladd+5)& (0+255),c
  1605  000A04  502E               	movf	___fladd@a+2,w,c
  1606  000A06  2032               	addwfc	??___fladd+2,w,c
  1607  000A08  6E36               	movwf	(??___fladd+6)& (0+255),c
  1608  000A0A  502F               	movf	___fladd@a+3,w,c
  1609  000A0C  2033               	addwfc	??___fladd+3,w,c
  1610  000A0E  6E37               	movwf	(??___fladd+7)& (0+255),c
  1611  000A10  0EFF               	movlw	255
  1612  000A12  2434               	addwf	??___fladd+4,w,c
  1613  000A14  6E28               	movwf	___fladd@b,c
  1614  000A16  0EFF               	movlw	255
  1615  000A18  2035               	addwfc	??___fladd+5,w,c
  1616  000A1A  6E29               	movwf	___fladd@b+1,c
  1617  000A1C  0EFF               	movlw	255
  1618  000A1E  2036               	addwfc	??___fladd+6,w,c
  1619  000A20  6E2A               	movwf	___fladd@b+2,c
  1620  000A22  0EFF               	movlw	255
  1621  000A24  2037               	addwfc	??___fladd+7,w,c
  1622  000A26  6E2B               	movwf	___fladd@b+3,c
  1623  000A28  0E80               	movlw	128
  1624  000A2A  1A38               	xorwf	___fladd@signs,f,c
  1625  000A2C  6C3B               	negf	___fladd@grs,c
  1626  000A2E  503B               	movf	___fladd@grs,w,c
  1627  000A30  A4D8               	btfss	status,2,c
  1628  000A32  D00F               	goto	l601
  1629  000A34  0E01               	movlw	1
  1630  000A36  2628               	addwf	___fladd@b,f,c
  1631  000A38  0E00               	movlw	0
  1632  000A3A  2229               	addwfc	___fladd@b+1,f,c
  1633  000A3C  222A               	addwfc	___fladd@b+2,f,c
  1634  000A3E  222B               	addwfc	___fladd@b+3,f,c
  1635  000A40  D008               	goto	l601
  1636  000A42                     l599:
  1637  000A42  502C               	movf	___fladd@a,w,c
  1638  000A44  5E28               	subwf	___fladd@b,f,c
  1639  000A46  502D               	movf	___fladd@a+1,w,c
  1640  000A48  5A29               	subwfb	___fladd@b+1,f,c
  1641  000A4A  502E               	movf	___fladd@a+2,w,c
  1642  000A4C  5A2A               	subwfb	___fladd@b+2,f,c
  1643  000A4E  502F               	movf	___fladd@a+3,w,c
  1644  000A50  5A2B               	subwfb	___fladd@b+3,f,c
  1645  000A52                     l601:
  1646  000A52  5028               	movf	___fladd@b,w,c
  1647  000A54  1029               	iorwf	___fladd@b+1,w,c
  1648  000A56  102A               	iorwf	___fladd@b+2,w,c
  1649  000A58  102B               	iorwf	___fladd@b+3,w,c
  1650  000A5A  A4D8               	btfss	status,2,c
  1651  000A5C  D01C               	goto	l608
  1652  000A5E  503B               	movf	___fladd@grs,w,c
  1653  000A60  A4D8               	btfss	status,2,c
  1654  000A62  D019               	goto	l608
  1655  000A64  0E00               	movlw	0
  1656  000A66  6E28               	movwf	?___fladd,c
  1657  000A68  0E00               	movlw	0
  1658  000A6A  6E29               	movwf	?___fladd+1,c
  1659  000A6C  0E00               	movlw	0
  1660  000A6E  6E2A               	movwf	?___fladd+2,c
  1661  000A70  0E00               	movlw	0
  1662  000A72  6E2B               	movwf	?___fladd+3,c
  1663  000A74  0012               	return	
  1664  000A76  90D8               	bcf	status,0,c
  1665  000A78  3628               	rlcf	___fladd@b,f,c
  1666  000A7A  3629               	rlcf	___fladd@b+1,f,c
  1667  000A7C  362A               	rlcf	___fladd@b+2,f,c
  1668  000A7E  362B               	rlcf	___fladd@b+3,f,c
  1669  000A80  BE3B               	btfsc	___fladd@grs,7,c
  1670  000A82  8028               	bsf	___fladd@b,0,c
  1671  000A84  A03B               	btfss	___fladd@grs,0,c
  1672  000A86  D002               	goto	l606
  1673  000A88  80D8               	bsf	status,0,c
  1674  000A8A  D001               	goto	L5
  1675  000A8C                     l606:
  1676  000A8C  90D8               	bcf	status,0,c
  1677  000A8E                     L5:
  1678  000A8E  363B               	rlcf	___fladd@grs,f,c
  1679  000A90  503A               	movf	___fladd@bexp,w,c
  1680  000A92  A4D8               	btfss	status,2,c
  1681  000A94  063A               	decf	___fladd@bexp,f,c
  1682  000A96                     l608:
  1683  000A96  AE2A               	btfss	___fladd@b+2,7,c
  1684  000A98  D7EE               	goto	l604
  1685  000A9A                     u1120:
  1686  000A9A  0E00               	movlw	0
  1687  000A9C  6E39               	movwf	___fladd@aexp,c
  1688  000A9E  AE3B               	btfss	___fladd@grs,7,c
  1689  000AA0  D00A               	goto	l613
  1690  000AA2  C03B  F030         	movff	___fladd@grs,??___fladd
  1691  000AA6  0E7F               	movlw	127
  1692  000AA8  1630               	andwf	??___fladd,f,c
  1693  000AAA  A4D8               	btfss	status,2,c
  1694  000AAC  D002               	goto	u1150
  1695  000AAE  A028               	btfss	___fladd@b,0,c
  1696  000AB0  D002               	goto	l613
  1697  000AB2                     u1150:
  1698  000AB2  0E01               	movlw	1
  1699  000AB4  6E39               	movwf	___fladd@aexp,c
  1700  000AB6                     l613:
  1701  000AB6  5039               	movf	___fladd@aexp,w,c
  1702  000AB8  B4D8               	btfsc	status,2,c
  1703  000ABA  D020               	goto	l616
  1704  000ABC  0E01               	movlw	1
  1705  000ABE  2628               	addwf	___fladd@b,f,c
  1706  000AC0  0E00               	movlw	0
  1707  000AC2  2229               	addwfc	___fladd@b+1,f,c
  1708  000AC4  222A               	addwfc	___fladd@b+2,f,c
  1709  000AC6  222B               	addwfc	___fladd@b+3,f,c
  1710  000AC8  A02B               	btfss	___fladd@b+3,0,c
  1711  000ACA  D018               	goto	l616
  1712  000ACC  C028  F030         	movff	___fladd@b,??___fladd
  1713  000AD0  C029  F031         	movff	___fladd@b+1,??___fladd+1
  1714  000AD4  C02A  F032         	movff	___fladd@b+2,??___fladd+2
  1715  000AD8  C02B  F033         	movff	___fladd@b+3,??___fladd+3
  1716  000ADC  3433               	rlcf	??___fladd+3,w,c
  1717  000ADE  3233               	rrcf	??___fladd+3,f,c
  1718  000AE0  3232               	rrcf	??___fladd+2,f,c
  1719  000AE2  3231               	rrcf	??___fladd+1,f,c
  1720  000AE4  3230               	rrcf	??___fladd,f,c
  1721  000AE6  C030  F028         	movff	??___fladd,___fladd@b
  1722  000AEA  C031  F029         	movff	??___fladd+1,___fladd@b+1
  1723  000AEE  C032  F02A         	movff	??___fladd+2,___fladd@b+2
  1724  000AF2  C033  F02B         	movff	??___fladd+3,___fladd@b+3
  1725  000AF6  283A               	incf	___fladd@bexp,w,c
  1726  000AF8  A4D8               	btfss	status,2,c
  1727  000AFA  2A3A               	incf	___fladd@bexp,f,c
  1728  000AFC                     l616:
  1729  000AFC  283A               	incf	___fladd@bexp,w,c
  1730  000AFE  B4D8               	btfsc	status,2,c
  1731  000B00  D003               	goto	u1200
  1732  000B02  503A               	movf	___fladd@bexp,w,c
  1733  000B04  A4D8               	btfss	status,2,c
  1734  000B06  D00D               	goto	l620
  1735  000B08                     u1200:
  1736  000B08  0E00               	movlw	0
  1737  000B0A  6E28               	movwf	___fladd@b,c
  1738  000B0C  0E00               	movlw	0
  1739  000B0E  6E29               	movwf	___fladd@b+1,c
  1740  000B10  0E00               	movlw	0
  1741  000B12  6E2A               	movwf	___fladd@b+2,c
  1742  000B14  0E00               	movlw	0
  1743  000B16  6E2B               	movwf	___fladd@b+3,c
  1744  000B18  503A               	movf	___fladd@bexp,w,c
  1745  000B1A  A4D8               	btfss	status,2,c
  1746  000B1C  D002               	goto	l620
  1747  000B1E  0E00               	movlw	0
  1748  000B20  6E38               	movwf	___fladd@signs,c
  1749  000B22                     l620:
  1750  000B22  A03A               	btfss	___fladd@bexp,0,c
  1751  000B24  D002               	goto	l621
  1752  000B26  8E2A               	bsf	___fladd@b+2,7,c
  1753  000B28  D001               	goto	l622
  1754  000B2A                     l621:
  1755  000B2A  9E2A               	bcf	___fladd@b+2,7,c
  1756  000B2C                     l622:
  1757  000B2C  90D8               	bcf	status,0,c
  1758  000B2E  303A               	rrcf	___fladd@bexp,w,c
  1759  000B30  6E2B               	movwf	___fladd@b+3,c
  1760  000B32  BE38               	btfsc	___fladd@signs,7,c
  1761  000B34  8E2B               	bsf	___fladd@b+3,7,c
  1762  000B36  C028  F028         	movff	___fladd@b,?___fladd
  1763  000B3A  C029  F029         	movff	___fladd@b+1,?___fladd+1
  1764  000B3E  C02A  F02A         	movff	___fladd@b+2,?___fladd+2
  1765  000B42  C02B  F02B         	movff	___fladd@b+3,?___fladd+3
  1766  000B46  0012               	return	
  1767  000B48                     __end_of___fladd:
  1768                           	opt stack 0
  1769                           tblptru	equ	0xFF8
  1770                           tblptrh	equ	0xFF7
  1771                           tblptrl	equ	0xFF6
  1772                           tablat	equ	0xFF5
  1773                           wreg	equ	0xFE8
  1774                           status	equ	0xFD8
  1775                           tblptru	equ	0xFF8
  1776                           tblptrh	equ	0xFF7
  1777                           tblptrl	equ	0xFF6
  1778                           tablat	equ	0xFF5
  1779                           wreg	equ	0xFE8
  1780                           status	equ	0xFD8
  1781                           
  1782                           	psect	rparam
  1783  0000                     tblptru	equ	0xFF8
  1784                           tblptrh	equ	0xFF7
  1785                           tblptrl	equ	0xFF6
  1786                           tablat	equ	0xFF5
  1787                           wreg	equ	0xFE8
  1788                           status	equ	0xFD8


Data Sizes:
    Strings     12
    Constant    0
    Data        0
    BSS         0
    Persistent  0
    Stack       0

Auto Spaces:
    Space          Size  Autos    Used
    COMRAM           95     67      67
    BANK0           160      0       0
    BANK1           256      0       0
    BANK2           256      0       0
    BANK3           256      0       0
    BANK4           256      0       0
    BANK5           256      0       0
    BANK6           256      0       0
    BANK7           256      0       0

Pointer List with Targets:

    USART_SendString@out	PTR const unsigned char  size(2) Largest target is 12
		 -> STR_1(CODE[12]), 


Critical Paths under _main in COMRAM

    _main->_USART_Init
    _USART_SendString->_USART_TxChar
    _USART_Init->___fladd
    ___fldiv->___xxtofl
    ___fladd->___fldiv

Critical Paths under _main in BANK0

    None.

Critical Paths under _main in BANK1

    None.

Critical Paths under _main in BANK2

    None.

Critical Paths under _main in BANK3

    None.

Critical Paths under _main in BANK4

    None.

Critical Paths under _main in BANK5

    None.

Critical Paths under _main in BANK6

    None.

Critical Paths under _main in BANK7

    None.

Call Graph Tables:

 ---------------------------------------------------------------------------------
 (Depth) Function   	        Calls       Base Space   Used Autos Params    Refs
 ---------------------------------------------------------------------------------
 (0) _main                                                 0     0      0    4747
                         _USART_Init
                   _USART_SendString
 ---------------------------------------------------------------------------------
 (1) _USART_SendString                                     2     0      2     136
                                              1 COMRAM     2     0      2
                       _USART_TxChar
 ---------------------------------------------------------------------------------
 (2) _USART_TxChar                                         1     1      0      15
                                              0 COMRAM     1     1      0
 ---------------------------------------------------------------------------------
 (1) _USART_Init                                           8     4      4    4611
                                             59 COMRAM     8     4      4
                            ___fladd
                            ___fldiv
                            ___fltol
                           ___xxtofl
 ---------------------------------------------------------------------------------
 (2) ___xxtofl                                            14    10      4     398
                                              0 COMRAM    14    10      4
 ---------------------------------------------------------------------------------
 (2) ___fltol                                             10     6      4     305
                                              0 COMRAM    10     6      4
 ---------------------------------------------------------------------------------
 (2) ___fldiv                                             25    17      8    1399
                                             14 COMRAM    25    17      8
                           ___xxtofl (ARG)
 ---------------------------------------------------------------------------------
 (2) ___fladd                                             20    12      8    2388
                                             39 COMRAM    20    12      8
                            ___fldiv (ARG)
                           ___xxtofl (ARG)
 ---------------------------------------------------------------------------------
 Estimated maximum stack depth 2
 ---------------------------------------------------------------------------------

 Call Graph Graphs:

 _main (ROOT)
   _USART_Init
     ___fladd
       ___fldiv (ARG)
         ___xxtofl (ARG)
       ___xxtofl (ARG)
     ___fldiv
       ___xxtofl (ARG)
     ___fltol
     ___xxtofl
   _USART_SendString
     _USART_TxChar

 Address spaces:
Name               Size   Autos  Total    Cost      Usage
BITCOMRAM           5F      0       0       0        0.0%
EEDATA             100      0       0       0        0.0%
NULL                 0      0       0       0        0.0%
CODE                 0      0       0       0        0.0%
COMRAM              5F     43      43       1       70.5%
STACK                0      0       0       2        0.0%
DATA                 0      0       0       3        0.0%
BITBANK0            A0      0       0       4        0.0%
BANK0               A0      0       0       5        0.0%
BITBANK1           100      0       0       6        0.0%
BANK1              100      0       0       7        0.0%
BITBANK2           100      0       0       8        0.0%
BANK2              100      0       0       9        0.0%
BITBANK3           100      0       0      10        0.0%
BANK3              100      0       0      11        0.0%
BITBANK4           100      0       0      12        0.0%
BANK4              100      0       0      13        0.0%
BITBANK5           100      0       0      14        0.0%
BANK5              100      0       0      15        0.0%
BITBANK6           100      0       0      16        0.0%
BANK6              100      0       0      17        0.0%
BITBANK7           100      0       0      18        0.0%
BANK7              100      0       0      19        0.0%
ABS                  0      0       0      20        0.0%
BIGRAM             7FF      0       0      21        0.0%
BITSFR               0      0       0     200        0.0%
SFR                  0      0       0     200        0.0%


Microchip Technology PIC18 Macro Assembler V2.00 build -1524193055 
Symbol Table                                                                                   Sun Aug 12 20:10:18 2018

             ___fldiv@aexp 0027               ___fldiv@bexp 0026               ___fldiv@sign 001F  
                       l42 10C6                         l43 10B2                         l27 10F4  
              __CFG_BOR$ON 000000                __CFG_BORV$3 000000               __CFG_CP0$OFF 000000  
             __CFG_CP1$OFF 000000               __CFG_CP2$OFF 000000               __CFG_CP3$OFF 000000  
              __CFG_LVP$ON 000000                        l360 0FEE                        l352 0F5E  
                      l601 0A52                        l361 0FE2                        l354 0FCA  
                      l363 100A                        l355 0FBA                        l620 0B22  
                      l604 0A76                        l621 0B2A                        l613 0AB6  
                      l622 0B2C                        l606 0A8C                        l630 0B78  
                      l631 0B74                        l711 0E3E                        l616 0AFC  
                      l608 0A96                        l640 0CD8                        l712 0E4E  
                      l641 0C88                        l721 0EEE                        l713 0E6C  
                      l642 0CB0                        l634 0BB8                        l722 0EE2  
                      l635 0BB4                        l715 0E7E                        l660 0DE4  
                      l644 0CD6                        l716 0E72                        l581 08E2  
                      l573 083E                        l637 0C02                        l582 08A6  
                      l574 083A                        l654 0D44                        l718 0EBC  
                      l591 09BA                        l647 0D0C                        l639 0C2A  
                      l727 0F2E                        l719 0EA4                        l592 0982  
                      l656 0D88                        l648 0CEE                        l585 095E  
                      l657 0DAC                        l729 1112                        l586 093C  
                      l578 0886                        l658 0DD6                        l595 09A4  
                      l587 094A                        l579 0882                        l659 0DE2  
                      l596 09A8                        l588 094E                        l599 0A42  
             __CFG_CPB$OFF 000000               __CFG_CPD$OFF 000000                        u940 0912  
                      u950 0922                        u960 0924                        u990 0966  
                      wreg 000FE8               ___fltol@exp1 000A               __CFG_WDT$OFF 000000  
                     l1527 0DD6                       STR_1 0801                       u1200 0B08  
                     u1120 0A9A                       u1150 0AB2                       u1410 0D40  
                     u1440 0D96                       u1520 0FF4                       u1600 0EF8  
                     u1450 0DBA                       u1480 0F7C                       u1485 0F72  
                     _TXIF 007CF4                       _main 10DA   __end_of_USART_SendString 10DA  
                     start 0000              __CFG_IESO$OFF 000000            ___fldiv@new_exp 0020  
             ___param_bank 000000              __CFG_PLLDIV$1 000000             __CFG_CCP2MX$ON 000000  
            ___fltol@sign1 0009            __end_of___fladd 0B48                      ?_main 0001  
          __end_of___fldiv 0E00            __end_of___fltol 101C                      _RCSTA 000FAB  
                    _SPBRG 000FAF              __CFG_USBDIV$1 000000                      _TRISD 000F95  
                    _TXREG 000FAD                      _TXSTA 000FAC              __CFG_PWRT$OFF 000000  
            __CFG_WRT0$OFF 000000              __CFG_WRT1$OFF 000000              __CFG_WRT2$OFF 000000  
            __CFG_WRT3$OFF 000000             __CFG_EBTR0$OFF 000000             __CFG_FCMEN$OFF 000000  
           __CFG_EBTR1$OFF 000000             __CFG_EBTR2$OFF 000000             __CFG_EBTR3$OFF 000000  
            __CFG_WRTB$OFF 000000              __CFG_WRTC$OFF 000000              __CFG_WRTD$OFF 000000  
           __CFG_EBTRB$OFF 000000                      tablat 000FF5                      status 000FD8  
           __CFG_ICPRT$OFF 000000             __CFG_PBADEN$ON 000000                ?_USART_Init 003C  
           __CFG_MCLRE$OFF 000000            __initialization 1102               __end_of_main 1102  
                   ??_main 0044              __activetblptr 000001                     _OSCCON 000FD3  
                   _TRISC6 007CA6                     _TRISC7 007CA7           __end_of___xxtofl 0F40  
           __CFG_XINST$OFF 000000                  ??___fladd 0030                  ??___fldiv 0017  
           __CFG_STVREN$ON 000000                  ??___fltol 0005               __mediumconst 0000  
                   tblptrh 000FF7                     tblptrl 000FF6                     tblptru 000FF8  
      __size_of_USART_Init 0094               ___xxtofl@arg 000B               ___xxtofl@exp 000A  
             ___xxtofl@val 0001                 __accesstop 0060    __end_of__initialization 1102  
            ___rparam_used 000001                 ___fltol@f1 0001             __pcstackCOMRAM 0001  
        ?_USART_SendString 0002         ??_USART_SendString 0004                  ?___xxtofl 0001  
          __CFG_VREGEN$OFF 000000               ??_USART_Init 0040                    __Hparam 0000  
                  __Lparam 0000                    ___fladd 080E                    ___fldiv 0B48  
                  ___fltol 0F40               __psmallconst 0800                    __pcinit 1102  
                  __ramtop 0800                    __ptext0 10DA                    __ptext1 10B0  
                  __ptext2 1110                    __ptext3 101C                    __ptext4 0E00  
                  __ptext5 0F40                    __ptext6 0B48                    __ptext7 080E  
      USART_SendString@out 0002             USART_Init@temp 0040                 ??___xxtofl 0005  
       __end_of_USART_Init 10B0       end_of_initialization 1102                ___fladd@grs 003B  
            ___xxtofl@sign 0009                ___fldiv@grs 0022                ___fldiv@rem 001B  
      USART_Init@baud_rate 003C              ?_USART_TxChar 0001        start_initialization 1102  
           ??_USART_TxChar 0001           __CFG_LPT1OSC$OFF 000000  __size_of_USART_SendString 002A  
                ___fladd@a 002C                  ___fladd@b 0028                  ___fldiv@a 0013  
                ___fldiv@b 000F          __size_of___xxtofl 0140                   ?___fladd 0028  
                 ?___fldiv 000F                   ?___fltol 0001                __smallconst 0800  
         __CFG_WDTPS$32768 000000       __end_of_USART_TxChar 111C                   __Hrparam 0000  
                 __Lrparam 0000               __Lsmallconst 0800           __size_of___fladd 033A  
         __size_of___fldiv 02B8           __size_of___fltol 00DC           _USART_SendString 10B0  
                 ___xxtofl 0E00              __size_of_main 0028      __CFG_CPUDIV$OSC1_PLL2 000000  
          USART_TxChar@out 0001      __size_of_USART_TxChar 000C        __CFG_FOSC$INTOSC_EC 000000  
            ___fladd@signs 0038               ___fladd@aexp 0039               ___fladd@bexp 003A  
             _USART_TxChar 1110                 _USART_Init 101C  
